:4000000000400020110000006D0800006D08000080B500AF024A034B1B68136000F030FCBC760040FA46004010B5054C237833B9044B13B10448AFF300800123237010BD41
:4000400060C1FF1F00000000003E0000084B10B51BB108490848AFF300800848036803B910BD074B002BFBD0BDE81040184700BF0000000064C1FF1F003E0000C8C0FF1F96
:400080000000000080B592B000AF62B60121002000F08AFC00F058FE0346002B06D000F047FE0346002B01D001F046F800F040FE0346002B2AD001F0C9F80346002B25D05A
:4000C0003B1D184601F0E6F80346A7F84630B7F84630002B1AD000BF01F0CAF80346002BFAD0B7F846203B1D1146184601F078F8B7F84630402B09D100BF01F0B9F803469C
:40010000002BFAD00021002001F06AF800F018F8C0E700BF80B582B000AF0346FB71FB790121184600F0C6F8FA2002F0EFFEFB790021184600F0BEF800BF0837BD4680BD93
:4001400080B500AF0021192000F0B4F80021002000F0B0F80021012000F0ACF80021022000F0A8F80021032000F0A4F80021042000F0A0F80021052000F09CF80021062075
:4001800000F098F80021072000F094F80021082000F090F80021092000F08CF800210A2000F088F800210B2000F084F800210C2000F080F800210D2000F07CF800210E2053
:4001C00000F078F800210F2000F074F80021102000F070F80021112000F06CF80021122000F068F80021132000F064F80021142000F060F80021152000F05CF800211620D3
:4002000000F058F80021172000F054F80021182000F050F81920FFF77DFF1020FFF77AFF0B20FFF777FF0C20FFF774FF0E20FFF771FF0F20FFF76EFF0020FFF76BFF01201C
:40024000FFF768FF0320FFF765FF0420FFF762FF0220FFF75FFF0620FFF75CFF0520FFF759FF0720FFF756FF0920FFF753FF0820FFF750FF0A20FFF74DFF0D20FFF74AFFA1
:400280001120FFF747FF1220FFF744FF1320FFF741FF1420FFF73EFF1520FFF73BFF1620FFF738FF1720FFF735FF1820FFF732FF00BF80BD80B582B000AF03460A46FB71F7
:4002C0001346BB71FB79192B00F2088101A252F823F000BF3D0300004D0300005D030000AD030000BD030000CD030000DD030000ED030000FD0300000D0400001D04000055
:400300008D0300007D0300002D0400009D0300006D0300003D0400004D0400005D0400006D0400007D0400008D0400009D040000AD040000BD040000CD0400000C2003F0F3
:400340000DF8BB79184602F0EBFFC7E00C2002F0DDFEBB79184602F0BDFEBFE00C2003F055FBBB79184603F033FBB7E00C2003F037FCBB79184603F015FCAFE00C2003F03D
:40038000BBFBBB79184603F099FBA7E00C2003F0EBFBBB79184603F0CDFB9FE00C2003F05BFCBB79184603F039FC97E00C2003F00DF8BB79184602F0EFFF8FE00C2003F04B
:4003C00005F8BB79184603F0E5FA87E00C2003F05FF9BB79184603F041F97FE00C2003F093F9BB79184603F071F977E00C2003F0C7F9BB79184603F0A5F96FE00C2003F03F
:40040000FBF9BB79184603F0D9F967E00C2003F02FFABB79184603F00DFA5FE00C2003F063FABB79184603F041FA57E00C2003F027FBBB79184603F007FB4FE00C2003F08E
:400440008BFABB79184603F06DFA47E00C2002F0F9FFBB79184602F0D7FF3FE00C2002F005FFBB79184602F0E7FE37E00C2002F089FEBB79184602F067FE2FE00C2002F0F8
:40048000BDFEBB79184602F09BFE27E00C2003F015F8BB79184602F0F3FF1FE00C2002F021FFBB79184602F0FFFE17E00C2003F07DF8BB79184603F05BF80FE00C2003F08C
:4004C00039F8BB79184603F017F807E00C2003F0A7F8BB79184603F087F800BF00BF0837BD4680BD80B582B000AF786039603A680021786803F07BFC00BF0837BD4680BDBF
:4005000080B584B000AFF860B9607A607A68B968F86803F061FC00BF1037BD4680BD00BF80B584B000AFF860B9607A607A68B968F86803F051FC00BF1037BD4680BD00BF95
:4005400080B483B000AF0346FB71FEE780B487B000AF7860396000233B6100237B6127E07B699B007A6813441B68BB60BB68FB73BB6823F0FF03BB6014E03B695B003A68AC
:4005800013441B781A46BB68134419463B695B003A6813445B780B703B6901333B61FB7B013BFB73FB7B002BE7D17B6901337B617B69162BD4D900BF1C37BD4680BC704717
:4005C00080B582B000AF334B4FF6FF721A80324B1B221A70042231493148FFF7A1FF314B06221A70304B52221A70304B304A1278D2B21A702F4B40F618021A802E4B41F2E0
:4006000051221A800023FB7019237B6014E0FB785B00DAB2294B1B78DBB203F00103DBB21343DBB203F00303FB704FF4F07003F033FB7B68013B7B607B68002B02D0FB784A
:40064000032BE4D17B68002B02D10320FFF778FF1B4B4FF480721A80194B07221A70194B00221A70184B48221A70154B00221A70164B00221A70164B02221A70154A154B8C
:400680001B78DBB243F00103DBB2137000BF0837BD4680BD8040004082400040043E0000004100400043004000420040A14600400F0100492242004020420040254200405E
:4006C0000440004006400040084000400940004001400040A243004080B483B000AF0B4B1B78FB710A4AFB7903F00703DBB21370084AFB791B09DBB21370074B44221A70BD
:4007000000BF0C37BD4680BC704700BFCF0100496E5800406F5800407658004080B582B000AF72B63B4B60221A70FFF749FF394B00221A700023FB7113E0FA7913465B00E7
:4007400013445B00344A13443B603B681A683B689B889BB219461046FFF7C4FEFB790133FB71FB79072BE8D92C492D48FFF7EEFE2C4A2C4B1B78DBB243F00203DBB2137016
:40078000294A294B1B78DBB243F00203DBB21370264A264B1B78DBB243F04003DBB21370234A234B1B78DBB243F01003DBB213700A2220492048FFF7B3FE0A221F49204872
:4007C000FFF7AEFE08221F491F48FFF7A9FE08221E491F48FFF7A4FE08221E491E48FFF79FFE08221D491E48FFF79AFE1D4A1D4B1B78DBB243F00803DBB21370FFF76CFF85
:400800000E220A491848FFF77BFE00BF0837BD4680BD00BF00480040083E0000943E0000383E00000350014013500140A0430040C2430040483F0000C0510040543F000048
:40084000F0510040603F000012510040683F000022510040703F000052510040783F00006251004022430040B043004080B500AF03F086FA03461B680C2B00D1FEE7FEE752
:4008800080B586B000AF224B7B61224B3B61204B7B6135E03B691B68FB603B695B68BB603B699B683B6000237B600CE0FB681A68BB681A60BB680433BB60FB680433FB6054
:4008C0007B6804337B607A683B689A42EED13B69DB683B6000237B6008E0BB6800221A60BB680433BB607B6804337B607A683B689A42F2D13B6910333B617B69013B7B61AF
:400900007B69002BC6D103F041FAFFF7BBFBFEE7010000009041000080B582B000AF184B184A1A60184A184B1B6843F40073136000237B600FE07B68032B04D8134A7B68AC
:4009400052F8233000E0124B12497A6841F822307B6801337B607B682F2BECD90E4B1B78DAB20E4B1A700E4B0A4A1A60FFF7D6FE0C4B00221A6000BF0837BD4680BD00BFA5
:400980000CED00E00004FA0514ED00E0000000006D08000000C0FF1FBC760040C4C0FF1F08ED00E0C0C0FF1F80B582B000AF03460A46FB711346BB71094B1B78002B04D119
:4009C00000F010F8064B01221A70BA79FB791146184600F0D9F800BF0837BD4680BD00BF7CC1FF1F80B582B000AF03F074F90346FB71544A534B1B78DBB243F00103DBB241
:400A00001370514A504B1B78DBB243F00103DBB213704E4B01221A704D4B02221A704D4A4C4B1B78DBB203F07F03DBB21370002002F08EFA484A484B1B78DBB223F006033C
:400A4000DBB21370454A454B1B78DBB223F02003DBB21370404A404B1B78DBB243F00103DBB21370012002F073FA282002F070FA3B4A3B4B1B78DBB203F07F03DBB2137091
:400A8000374A374B1B78DBB223F04003DBB21370314A314B1B78DBB243F00203DBB21370022002F055FA2C4A2B4B1B78DBB243F00403DBB213702B4B00221A702A4B0022DC
:400AC0001A70FB79184603F00AF90721172002F07BFA2649172002F04FFA0721182002F073FA2349182002F047FA0721152002F06BFA2049152002F03FFA0721002002F0B0
:400B000063FA1D49002002F037FA0721012002F05BFA1A49012002F02FFA0721022002F053FA1749022002F027FA07210C2002F04BFA14490C2002F01FFA00BF0837BD4642
:400B400080BD00BFA5430040B54300409D60004009600040106000409443004012600040F85100408460004085600040891A0000711300007D1A000095190000DD19000086
:400B8000291A0000511E000080B584B000AF03460A46FB711346BB710023FB7306E0FB7B334A0121D154FB7B0133FB73FB7B012BF5D9304AFB7913702F4B00221A702F4B97
:400BC00000221A702E4B00221A702E4B00221A702D4B00221A702D4B00221A702C4B00221A702C4B4FF400021A602A4B4FF080721A60284B4FF400121A60264B01221A60EE
:400C0000244B02221A60234B04221A60BB79002B02D0012B09D011E01F4A1F4B1B78DBB223F00103DBB2137011E01B4A1A4B1B78DBB243F00103DBB2137008E0164A164B8D
:400C40001B78DBB243F00103DBB2137000BF134B03221A70124B80221A70012003F01CF8104B04221A7000BF1037BD4680BD00BF38C2FF1F9DC1FF1FA0C1FF1FBCC1FF1FD2
:400C8000BFC1FF1FB4C1FF1FBEC1FF1FC1C1FF1F9CC1FF1F00E100E00960004028600040086000401260004080B483B000AF0023FB7106E0FB79144A0121D154FB79013373
:400CC000FB71FB79012BF5D9104B00221A70104B00221A700F4B00221A700F4B00221A700E4B00221A700E4B00221A700D4B00221A700D4B03221A700C4B80221A7000BFA9
:400D00000C37BD4680BC704738C2FF1FA0C1FF1FBCC1FF1FBFC1FF1FB4C1FF1FBEC1FF1FC1C1FF1F9CC1FF1F286000400860004080B400AF034B1B78DBB21846BD4680BC01
:400D4000704700BFBFC1FF1F80B483B000AF0023FB71084B1B78DBB2002B05D0054B1B78FB71044B00221A70FB7918460C37BD4680BC7047BCC1FF1F80B483B000AF0346F8
:400D8000FB71FA79064913465B0013449B000B4401331B78DBB218460C37BD4680BC7047C4C1FF1F80B485B000AF0346FB710023FB81FB79002B1CD0FB79082B19D8104A99
:400DC000FB791B0113441B78DBB29BB203F00F03FB81FB891B029AB20949FB791B010B4401331B78DBB29BB21343FB81FB89023BFB81FB8918461437BD4680BC704700BF6E
:400E0000FC5F0040B0B485B000AF03463960FB711346BB80FB79002B6DD0FB79082B6AD8B988FA79364813465B0013449B00034406331B889BB2C3F5007399420CD9FA7982
:400E40002F4913465B0013449B000B4406331B889BB2C3F50073BB802A4CF979BB881B0A9BB2D8B2FA79264D13465B0013449B002B4403331B78DBB20343DAB20B012344B9
:400E80001A70204AFB79B988C9B21B01134401330A461A703B68002B13D00023FB810CE01948FB79FA8939680A4412781B01034408331A70FB890133FB81FA89BB889A4282
:400EC000EED3FA790E4913465B0013449B000B44013300221A700B48F979FA79084C13465B0013449B00234405331B78DAB20B01034402331A7000BF1437BD46B0BC704760
:400F0000C4C1FF1FFC5F00407060004080B584B000AF03463960FB711346BB803B68002B30D0FB79002B2DD0FB79082B2AD8FB791846FFF737FF03461A46BB88934205D9B9
:400F4000FB791846FFF72EFF034600E0BB88BB800023FB810DE0FB893A6813440D49FA7912010A4408321278D2B21A70FB890133FB81FA89BB889A42EDD3FB79184600F078
:400F80000BF801E00023BB80BB8818461037BD4680BD00BF7060004090B482B000AF0346FB71FB79002B1CD0FB79082B19D8FA790E4913465B0013449B000B4401330022E6
:400FC0001A700B48F979FA79084C13465B0013449B00234405331B78DAB20B01034402331A7000BF0837BD4690BC7047C4C1FF1FFC5F004080B582B000AF0023FB71314B02
:401000001B79DBB2184600F067F80346BB712D4B1B78DBB25BB2002B15DA2A4B5B78DBB2212B00D048E0284B07221A80BA791346DB009B1A254A1344234A536000F012FB60
:401040000346FB7138E01F4B5B78DBB2202B02D0222B1AD030E01C4B07221A80BA791346DB009B1A194A1344174A5360BB79BA7917498A5CD2B242F00102D1B2144AD154F5
:4010800000F06EFB0346FB7116E0BB790D4A9278D2B291B20F4A22F81310BB79BA790C498A5CD2B242F00202D1B2094AD15400F0F5FB0346FB7100BFFB7918460837BD467B
:4010C00080BD00BF00600040A8C1FF1FCCC0FF1F84C1FF1F98C1FF1F80B485B000AF0346FB710023FB73FF23BB7317E0FB7B104AD35C7B737A7B0F4913465B0013449B00C4
:401100000B440A331B78DBB2FA799A4203D1FB7BBB730223FB73FB7B0133FB73FB7B012BE4D9BB7B18461437BD4680BC704700BF8CC1FF1FC4C1FF1F80B582B000AF002357
:40114000BB71224B00221A70214B00221A70204B00225A700023FB7110E0FB791D4AD35C7B717B79002B06D07B79082B03D87B791846FFF711FFFB790133FB71FB79012B43
:40118000EBD9154B1B78DBB2002B18D0114B1B78DBB2002B13D0114B1B78DBB2002B0ED00D4B1B78DBB2082B09D80A4B1B78DBB2082B04D8094B1B78DBB2082B01D9012314
:4011C000BB71BB7918460837BD4680BD7DC1FF1F84C1FF1F90C1FF1F88C1FF1F8CC1FF1F80B584B000AF78600B467B80144B1B781A46144B9B5CFB73FA7B134913465B00DB
:4012000013449B000B4408331B889BB27A889A420CD9FA7B0C4913465B0013449B000B4408331B887B80002001F064FE7A88FB7B79681846FFF7E6FD00BF1037BD4680BD9E
:401240007DC1FF1F88C1FF1FC4C1FF1F80B500AF054B1B781A46054B9B5CDBB21846FFF78BFD0346184680BD7DC1FF1F90C1FF1F80B500AF054B1B781A46054B9B5CDBB287
:401280001846FFF779FD0346184680BD7DC1FF1F88C1FF1F80B584B000AF78600D4B1B781A460D4B9B5CFB73FA7B0C4913465B0013449B000B4408331B889AB2FB7B796885
:4012C0001846FFF723FE0346BB81BB8918461037BD4680BD7DC1FF1F90C1FF1FC4C1FF1F80B485B000AF78600B46FB701346BB707B68DB7803F00303FB737B689B785BB28D
:40130000002B1ADAFB7B032B0AD0BB7803F001031449FA78CA54BB7843F00103BB701BE0BB789B08DBB203F001030F49FA78CA54BB7843F00403BB700EE0FB7B032B0BD022
:40134000BB785B08DBB203F001030849FA78CA54BB7843F00203BB70BB7818461437BD4680BC704788C1FF1F8CC1FF1F90C1FF1F80B582B000AF374B1B78BB71BB7903F04B
:401380001003002B62D00123FB7197F90630002B12DABB7903F00F03012B02D00023FB711CE000F061F82C4B1B78DBB25BB2002B14DA0023FB7111E0BB7903F04003002B73
:4013C00002D000F095F809E0BB7903F02003002B02D000F0B3F801E00023FB71FB79002B34D01C4B1B78BB7197F90630002B2DDB1A4B1B78DAB21A4B1B78DBB21343BB7116
:40140000184ABB791370174B1B78DBB2BA799A421CD1114B1B78FB710E4B1B78DBB223F07F03BB71BB79002B0AD10A4B0A4A1278D2B21A70074B1B78DBB203F00F03FB7122
:40144000054B1B78DBB2FA799A42E2D100BF0837BD4680BD28600040BDC1FF1F32C2FF1FC0C1FF1F2960004080B582B000AF1D4B1B78FB711B4AFB7913701A4B1B78FB71A1
:4014800097F90730002B03DA174AFB79137025E0022000F045FA154B1B78DBB203F06003202B08D0402B0BD0002B0ED100F0D6FC0346FB710CE002F019FC0346FB7107E060
:4014C00001F0DEFC0346FB7102E00023FB7100BFFB79002B02D1044B03221A7000BF0837BD4680BD28600040BDC1FF1F0060004080B500AF104B1B78DBB2062B19D801A266
:4015000052F823F03315000033150000211500003315000027150000331500002D15000000F0F8F806E000F0A7F903E000F0D2F900E000BF00BF80BDA0C1FF1F80B500AF88
:40154000124B1B78DBB2062B1DD801A252F823F087150000871500006D1500008715000073150000871500007915000000F0D8F80AE000F027F907E0032000F0D1F9044BF3
:4015800003221A7000E000BF00BF80BDA0C1FF1FBDC1FF1F80B483B000AF0023FB71294B1B78DBB29AB2284B1B889BB213449AB2254B1A8015E02549FB79254A52681278A7
:4015C000D2B2CA54224B5B680133214A5360FB790133FB711E4B1B889BB2013B9AB21C4B1A801B4B1B889BB2002B02D0FB79072BE1D9144B1B78DBB2082B02D0FB79002BFB
:401600000FD0144B1B78DBB283F07F03DB43DAB2104B1A70104B0F221A70104B02221A7005E00D4B02221A700C4B02221A700C4AFB791370034AFB79137000BF0C37BD4623
:4016400080BC70479CC1FF1F9EC1FF1F00600040A8C1FF1F32C2FF1FBDC1FF1FA0C1FF1FC0C1FF1F80B582B000AF164B1B889BB2002B02D100F02EF81EE0134B02221A7007
:40168000124B00221A7000F06BF9114BDB79DBB29BB21B029AB20E4B9B79DBB29BB21343FB80084B1B889BB2FA889A4202D2054AFB881380FFF76EFF012318460837BD46C1
:4016C00080BD00BFA8C1FF1FA0C1FF1F32C2FF1F0060004080B400AF094B02221A70094B80221A70084B0F221A70084B00221A70074B00221A7001231846BD4680BC70474E
:40170000A0C1FF1F32C2FF1FBDC1FF1F9CC1FF1FC0C1FF1F80B500AFFFF73CFF00BF80BD80B500AF0A4B1B78DBB29AB2094B1B889BB213449AB2074B1A80074B00221A70DB
:40174000012000F0EDF8054B03221A7000BF80BD9CC1FF1F9EC1FF1FA0C1FF1FBDC1FF1F80B582B000AF124B04221A70114B80221A7000F0F5F8104BDB79DBB29BB21B0237
:401780009AB20D4B9B79DBB29BB21343FB800B4B1B889BB2FA889A4202D2084AFB881380074B0B221A70012318460837BD4680BDA0C1FF1F32C2FF1F00600040A8C1FF1F24
:4017C000BDC1FF1F80B483B000AF0023BB71234B1B78DBB203F00F03DBB2023BFB71FB799AB21F4B1B889BB213449AB21C4B1A8018E01C4B5B681C49BA798A5CD2B21A70B3
:40180000184B5B680133174A5360BB790133BB71FB79013BFB71134B1B889BB2013B9AB2104B1A800F4B1B889BB2002B02D0FB79002BDED10D4AFB7913700D4B1B78DBB264
:4018400083F07F03DB43DAB2094B1A70094B0B221A7000BF0C37BD4680BC7047296000409EC1FF1FA8C1FF1F00600040C0C1FF1F32C2FF1FBDC1FF1F80B500AF054B0022D8
:401880001A70012000F04CF8034B03221A7000BF80BD00BFA0C1FF1FBDC1FF1F80B400AF084B06221A70084B06221A70074B80221A70074B00221A7001231846BD4680BC4C
:4018C000704700BFA0C1FF1FBDC1FF1F32C2FF1FC0C1FF1F80B500AF0D4B1B78DBB2002B0AD00C4A0A4B1B78DBB263F07F03DBB21370074B00221A70074B00221A70012078
:4019000000F00EF8054B03221A7000BF80BD00BFBEC1FF1F08600040A0C1FF1FBDC1FF1F80B483B000AF0346FB710B4B9B68002B0CD0094B9B68FA791A70074B9B68074A72
:40194000128892B25A80044B00229A6000BF0C37BD4680BC704700BFA8C1FF1F9EC1FF1F80B400AF094B00221A80094B9B68002B07D0074B9B6800221A70054B9B680022C7
:401980005A8000BFBD4680BC704700BF9EC1FF1FA8C1FF1F80B400AF0D4B01221A700D4B9B7C0D4B1B7BDBB203F00303012B08D0094BDB7BDBB283F07F03DB43DAB2064BDF
:4019C000DA73054B01225A7300BFBD4680BC70470B600040FC5F0040C4C1FF1F80B400AF0E4B02221A700E4B93F822300D4B1B7EDBB203F00303012B08D00A4BDB7EDBB2E6
:401A000083F07F03DB43DAB2064BDA76054B01225A7600BFBD4680BC704700BF0B600040FC5F0040C4C1FF1F80B400AF104B04221A70104B93F832300F4B93F82430DBB2CA
:401A400003F00303012B0AD00B4B93F82730DBB283F07F03DB43DAB2074B83F82720064B012283F8252000BFBD4680BC704700BF0B600040FC5F0040C4C1FF1F80B400AF7B
:401A800000BFBD4680BC704780B500AFFFF70CF900BF80BD80B582B000AF0023FB71714B1B79BB716F4B1B78DBB25BB2002B6CDA6C4B5B78DBB2013B052B00F2BE8001A2C7
:401AC00052F823F0271B0000411B00006B1B00003B1C00003B1C0000DD1A0000614BDB78DBB2212B0CD100F0C7F85F4B1B889BB2002B00F0A480FFF7B5FD0346FB719EE0A8
:401B0000584BDB78DBB2222B40F0998000F0F2F8554B1B889BB2002B00F09180FFF7A2FD0346FB718BE000F02DF94F4B1B889BB2002B00F08680FFF795FD0346FB7180E0E3
:401B4000BB79012B7FD8474B9B78DBB2002B7AD1454B01221A80BB79444A1344424A5360FFF780FD0346FB716DE0BB79012B6CD83D4B01221A80BB793D4A13443A4A5360BA
:401B8000FFF770FD0346FB715FE0364B5B78DBB20A2B10D00B2B3DD0092B00D05CE000F0F1F8314B1B889BB2002B50D0FFF7D8FD0346FB714BE0BB79012B4AD8294B9B7811
:401BC000DBB2002B45D1BB79264AD278D1B2274AD154BB79254AD35CDAB2BB792549CB5CDBB29A4204D2BB79224A0021D1540CE0BB79204AD35CDBB2012B06D9BB79BA790C
:401C00001A498A5CD1B21B4AD154FFF747FE0346FB711EE0BB79012B1DD8124B9B78DBB2012B18D8BB790F4A9278D1B2104AD154FFF734FE0346FB710DE000BF0CE000BF25
:401C40000AE000BF08E000BF06E000BF04E000BF02E000BF00E000BFFB7918460837BD4680BD00BF00600040A8C1FF1F40C2FF1F38C2FF1F3CC2FF1F80B584B000AF194B85
:401C80001B78DBB2013BDBB2184600F041FFF860154B1B79FB72FB7A0233DB00FA681344FB60FB685B68FB60FB7A104AD35CDBB2DB00FA681344FB60FB685B68FB60FB687C
:401CC0002033FB60FB685B687B607B681B78DBB29AB2074B1A80064A7B68536000BF1037BD4680BDBFC1FF1F0060004030C2FF1FA8C1FF1F80B584B000AF1E4B1B78DBB258
:401D0000013BDBB2184600F003FFF8601A4B1B79FB72FB7A0233DB00FA681344FB60FB685B68FB60FB7A154AD35CDBB2DB00FA681344FB60FB685B68FB60FB681833FB60A9
:401D4000FB685B687B607B6801331B78DBB29BB21B029AB27B681B78DBB29BB213439AB2074B1A807B680233054A536000BF1037BD4680BDBFC1FF1F0060004030C2FF1FE9
:401D8000A8C1FF1F80B584B000AF2D4B00221A802C4B1B78DBB2013BDBB2184600F0B8FEF860294BDB78FB72274B1B79BB72BB7A0233DB00FA681344FB60FB685B68FB6053
:401DC000BB7A012B38D8BB7A204AD35CDBB2DB00FA681344FB60FB685B68FB60FB7A002B2AD0FB7A032B27D8FB7A03F10053013BDB00FA681344FB60134B9B78FB72FB6843
:401E00001B78FA7A9A4217D8FB685B687B60FA7A13465B0013449B001A467B6813447B607B685B68064A53607B681A88044B1A807B689B68024A936000BF1037BD4680BDBE
:401E4000A8C1FF1FBFC1FF1F0060004030C2FF1F80B500AF01F03EF800BF80BD80B586B000AF0023FB759D4B1B78FB7100233B619B4B00221A8097F90730002B80F20481A8
:401E8000964B5B78DBB20A2B00F21B8201A252F823F000BFDF1F0000C3220000C3220000C3220000C3220000C3220000C11E0000C322000053200000C32200006920000042
:401EC000864BDB78DBB2012B0ED100F049FEB860BB685B68824A5360814B12221A80FFF7C1FB0346FB75EEE17C4BDB78DBB2022B25D17A4B9B78DBB2184600F009FEB86002
:401F0000BB68002B00F0DF81BB685B68744A5360734B5B6803331B78DBB29BB21B029AB26F4B5B6802331B78DBB29BB213439AB26B4B1A80FFF796FB0346FB75C3E1674B78
:401F4000DB78DBB2032B45D10023FB73654B3B6109E03B691B78BB71BB793A6913443B61FB7B0133FB735D4B9B78DBB2FA7B9A4204D23B691B78DBB2002BEAD1574B9B7864
:401F8000DBB2EE2B01D1584B3B61544B9B78DBB2002B0BD0514B9B78DAB2544B1B7C9A4204D1534800F0ACF9514B3B613B691B78DBB2002B00F087813B691B78DBB29AB2A4
:401FC000474B1A80464A3B695360FFF74BFB0346FB7578E101F08AFE0346FB7573E1FB7903F00303002B20D0022B00D030E03C4B02221A80394B1B79DBB203F07F023D4981
:4020000013465B0013449B000B4402331B78DAB2394B1A70384B00225A70314B364A5A60FFF720FB0346FB7512E02D4B02221A80324B1B78DAB2304B1A702F4B00225A702B
:40204000274B2D4A5A60FFF70DFB0346FB7500BF40E1234B01221A80214B294A5A60FFF701FB0346FB7535E11D4B01221A801B4B1B79DBB21A46234B1344194A5360FFF7C4
:40208000F1FA0346FB7525E1144B5B78DBB2013B0A2B00F21A8101A252F823F0A7210000CB22000035220000CB220000C9200000CB220000CB220000CB2200000D210000E2
:4020C000CB22000063210000044B9B78DAB20E4B1A70FFF7E3FB0346FB75FBE000600040A8C1FF1FEC3F00002C410000943F000044C2FF1FC4C1FF1F80C1FF1FC1C1FF1FDE
:40210000BFC1FF1F30C2FF1FBEC1FF1F744B9B787B717B79002B06D07B79013BDBB2184600F0F6FCB8607B79002B02D0BB68002B03D17B79002B40F0CA806A4B1B78DBB20B
:402140007A799A4208D0674A7B791370664B01221A70012000F0DCF9FFF7A0FB0346FB75B5E000F055FE0346002B00F0B2805C4B1B793B715A4B1B79DAB25C4B1A703B7903
:402180005B4AD35CDAB23B795A49CB5CDBB29A4204D0554B01221A7000F08CFBFFF77EFB0346FB7595E0FB7903F00303012B20D0012B0CD3022B00D03BE0494B9B78DBB2C3
:4021C000002B31D100F078FD0346FB752CE0444B9B78DBB2012B29D1474B1B78DBB223F00203DAB2444B1A70FFF758FB0346FB751CE03B4B1B79DBB2012B19D8384B9B786C
:40220000DBB2DB43DBB2364A1279D2B2114610463A4A125CD2B21340DAB2384B5A54FFF73DFB0346FB7503E000BF53E000BF51E000BF4FE0FB7903F00303012B20D0012B55
:402240000CD3022B00D03BE0254B9B78DBB2002B31D100F0BDFC0346FB752CE0204B9B78DBB2012B29D1244B1B78DBB243F00203DAB2214B1A70FFF711FB0346FB751CE08B
:40228000174B1B79DBB2012B19D8154B9B78DBB2DB43DBB2124A1279D2B211461046174A125CD2B21340DAB2144B5A54FFF7F6FA0346FB7503E000BF0CE000BF0AE000BFE7
:4022C00008E000BF06E000BF04E000BF02E000BF00E000BFFB7D18461837BD4680BD00BF00600040BFC1FF1FBCC1FF1FB4C1FF1FA4C1FF1F30C2FF1FC1C1FF1F34C2FF1FD8
:40230000B0B58AB000AF7860324B07F114041D460FCD0FC42B682370002387F826307B68002B52D07B6822221A707B68013303221A7007F10C03184600F06AFE022387F8B2
:4023400027303EE097F827307A68134497F8262007F128010A4412F81C2C1209D2B207F128010A4412F8142C1A7097F8273001337A68134400221A7097F8273002337A6855
:40238000134497F8262007F128010A4412F81C2C02F00F0207F128010A4412F8142C1A7097F8273003337A68134400221A7097F82630013387F8263097F82730043387F85F
:4023C000273097F82730212BBCD900BF2837BD46B0BD00BF803F000090B482B000AF0123FB7180E0464AFB791B0113440C221A70FA79444913465B0013449B000B44053342
:402400001B78DBB2002B1CD0FA793E4913465B0013449B000B4404331B78DBB25BB2002B07DA394AFB791B01134402330C221A700EE0354AFB791B011344023308221A7072
:4024400006E0314AFB791B011344023380221A702B48F979FA792B4C13465B0013449B00234406331B889BB2DAB20B01034406331A702348F979FA79224C13465B00134443
:402480009B00234406331B889BB21B0A9BB2DAB20B01034407331A701948F979FA79194C13465B0013449B00234406331B889BB2DAB20B01034404331A701148F979FA791D
:4024C000104C13465B0013449B00234406331B889BB21B0A9BB2DAB20B01034405331A70FB790133FB71FB79082B7FF67BAF074BFF221A7000BF0837BD4690BC704700BF1D
:4025000070600040C4C1FF1FFC5F00400A60004080B58AB000AF0346FB7100237B84002387F8273050E097F82720B34913465B0013449B000B4400221A7097F82720AE4945
:4025400013465B0013449B000B44023300221A7097F82720A84913465B0013449B000B44033300221A7097F82720A34913465B0013449B000B44083300221A8097F8272063
:402580009D4913465B0013449B000B440A3300221A7097F82720984913465B0013449B000B44013300221A7097F82720924913465B0013449B000B44053300221A7097F8B2
:4025C0002730013387F8273097F82730082BAAD9FB79002B16D0002387F825300EE097F82530864A0021D15497F82530844A0021D15497F82530013387F8253097F82530B2
:40260000012BECD97F4B1B78DBB2002B00F04A810023FB767B4B1B78DBB2013BDBB2184600F076FA78617B695B683B613B6907331B7803F04003002B08D0734B1B78DBB234
:4026400043F00103DAB2704B1A7007E06E4B1B78DBB223F00103DAB26B4B1A707B6908337B617B691B7887F82730012387F82530B6E07B695B68FB61002387F82630A3E05B
:4026800097F82520FB699B7803F07F039A4240F0938097F82520584913465B0013449B000B4408331B889AB2FB699B889A420CD297F82520FB6998884F4913465B0013446B
:4026C0009B000B44083302461A80FB691B781A464A4B9B5CDAB2FB695B789A426CD197F82520FB699878444913465B0013449B000B44043302461A7097F82520FB69D878B9
:402700003D4913465B0013449B000B4402461A70FB69DB7803F00303FB73FB699B785BB2002B1CDA97F82520FB7B012B01D1072000E00D20304913465B0013449B000B449F
:40274000053302461A7097F825202B4913465B0013449B000B44013301221A701BE097F82520FB7B012B01D1052000E00920224913465B0013449B000B44053302461A7056
:4027800097F825201C4913465B0013449B000B44013300221A70FB699B790A2B03D0FB699B79022B08D1FA7E97F825301946F869FEF796FD0346FB76FB690833FB6197F825
:4027C0002630013387F8263097F8262097F827309A42FFF455AF97F82530013387F8253097F82530082B7FF644AF7B695B68FB61002387F8253020E0C4C1FF1F30C2FF1FD4
:40280000A4C1FF1FBFC1FF1FC1C1FF1FFB699B7803F07F02FB691878244913465B0013449B000B440A3302461A70FB690833FB6197F82530013387F8253097F8252097F83D
:4028400027309A42E2D300F09DF90246184B1A6000237B84012387F827301DE097F82720124913465B0013449B000B4406337A8C1A8097F827200D4913465B0013449B00DB
:402880000B4408331B889AB27B8C13447B8497F82730013387F8273097F82730082BDDD9FFF79AFD00BF2837BD4680BDC4C1FF1FB8C1FF1F90B585B000AF8F4B1B78DBB23B
:4028C000002B00F015818C4B1B78DBB2013BDBB2184600F01DF978607B6808337B607B681B78FB707B685B68BB60844B1B78BB700023FB73F7E0BB681B78BA789A4240F0A7
:40290000EC80BB787E4AD35CDAB2BB685B789A4240F0E380BB689B7803F07F037B70BB68DB7803F003033B707A78764913465B0013449B000B44033300221A707A78BB68C3
:402940009878704913465B0013449B000B44043302461A707A78BB68D8786A4913465B0013449B000B4402461A707A78BB689888644913465B0013449B000B440833024657
:402980001A80BB689B785BB2002B1ADA7A783B78012B01D1072000E00D205A4913465B0013449B000B44053302461A707A78554913465B0013449B000B44013301221A703C
:4029C00019E07A783B78012B01D1052000E009204C4913465B0013449B000B44053302461A707A78474913465B0013449B000B44013300221A70444A7B781B0113440233F9
:402A000001221A70404879787A783E4C13465B0013449B00234408331B889BB21B0A9BB2DAB20B0103441A70374879787A78354C13465B0013449B00234408331B889BB2C6
:402A4000DAB20B01034401331A70304879787A782C4C13465B0013449B00234406331B889BB2DAB20B01034406331A70274879787A78244C13465B0013449B002344063306
:402A80001B889BB21B0A9BB2DAB20B01034407331A701E4879787A781A4C13465B0013449B00234406331B889BB2DAB20B01034404331A70154879787A78124C13465B003A
:402AC00013449B00234406331B889BB21B0A9BB2DAB20B01034405331A70BB680833BB60FB7B0133FB73FA7BFB789A42FFF403AF00BF1437BD4690BDBFC1FF1FB4C1FF1FBC
:402B000030C2FF1FC4C1FF1FFC5F00407060004080B485B000AF0346FB710F4B1B78DBB20E4ADB0013445B68FB60FB681033FB60FB681B78FA799A4202D30023FB6005E0CA
:402B4000FB79DB00FA6813445B68FB60FB6818461437BD4680BC70479DC1FF1F2441000080B400AF054B1B78DBB2054ADB0013445B681846BD4680BC704700BF9DC1FF1F26
:402B80002441000080B584B000AF104B1B78DBB2013BDBB21846FFF7BBFFB860BB68002B0DD0BB685B681B79FB71FB790233DB00BA681344BB60BB685B68FB6001E00023C0
:402BC000FB60FB6818461037BD4680BDBFC1FF1F80B582B000AF0023FB71344B1B79DBB203F07F03BB71BB79002B5AD0BB79082B57D8BA79B9792E480B465B000B449B001E
:402C0000034402331B78DBB243F00103D8B2284913465B0013449B000B44023302461A70BA79234913465B0013449B000B44033300221A70BA79B9791D480B465B000B448F
:402C40009B00034401331B78DBB243F00203D8B2174913465B0013449B000B44013302461A70BA79124913465B0013449B000B4404331B78DBB25BB2002B07DA0D4ABB7983
:402C80001B01134402338D221A7006E0094ABB791B011344023389221A70FEF7FFFD0346FB71FB7918460837BD4680BD00600040C4C1FF1FFC5F004080B582B000AF0023DB
:402CC000FB71504B1B79DBB203F07F03BB71BB79002B00F09280BB79082B00F28E80BA79B97949480B465B000B449B00034402331B78DBB223F00103D8B2434913465B003A
:402D000013449B000B44023302461A70BA793E4913465B0013449B000B44033300221A703A49BB793948BA79120102441278D2B202F07F02D2B21B010B441A70BA79B97997
:402D400031480B465B000B449B00034401331B78DBB223F00203D8B22B4913465B0013449B000B44013302461A70BA79264913465B0013449B000B4404331B78DBB25BB29D
:402D8000002B1BDABA79204913465B0013449B000B4401331B78DBB2012B07D11B4ABB791B01134402330C221A7022E0174ABB791B01134402330D221A701AE0BA79124991
:402DC00013465B0013449B000B4401331B78DBB2012B07D10D4ABB791B011344023308221A7006E0094ABB791B011344023309221A70FEF753FD0346FB71FB7918460837CA
:402E0000BD4680BD00600040C4C1FF1FFC5F004080B584B000AF0023FB73154B1B79BB73144B1B78DBB2013BDBB21846FFF770FEB860BB685B681B79FB71BA7BFB799A421C
:402E400002D9BB7B022B0ED8BB7BBA7B0A498A5CD1B20A4AD154BB7B054A9278D1B2064AD1540123FB73FB7B18461037BD4680BD00600040BFC1FF1F30C2FF1FA4C1FF1F49
:402E800080B582B000AF0023FB710F4B1B78DBB25BB2002B12DA0C4B5B78DBB2012B00D00CE00A4B0A4A5A60094B1B789AB2074B1A80FEF7D7FB0346FB7100BFFB791846A1
:402EC0000837BD4680BD00BF00600040A8C1FF1F4041000080B400AF054B1B78DBB203F040039B09DBB21846BD4680BC704700BF8F45004080B483B000AF0346FB7101BE81
:402F000000BF0C37BD4680BC704700BF80B582B000AF786008E00C4B1B68184600F0BCFE7B68A3F500437B607B68B3F5004FF2D8064B1B687A6802FB03F3184600F0ACFE44
:402F400000BF0837BD4680BDF4C0FF1FECC0FF1F80B582B000AF0346FB80FB88054A127802FB03F3184600F097FE00BF0837BD4680BD00BFF0C0FF1F80B584B000AF03463F
:402F80003960FB710F4B1B68FB60FB791F2B02D90020FFF7AFFFFB7903F01F0310339B00FA6813441B68BB60FB7903F01F0310339B00FA6813443A681A60BB6818461037B5
:402FC000BD4680BD08ED00E080B582B000AF03460A46FB711346BB71BB79072B02D90020FFF788FFFB791F2B02D90020FFF782FFFB7903F01F0303F1604303F56443BA791C
:403000005201D2B21A7000BF0837BD4680BD00BF80B483B000AF7860264B1B78DBB21A467B681A60244B1B78DBB21B027A6812681A437B681A60214B1B78DBB21B047A68A7
:4030400012681A437B681A601D4B1B78DBB21B067A6812681A437B681A607B680433194A1278D2B21A60184B1B78DBB21A027B6804337968043109680A431A60134B1B7860
:40308000DBB21A047B6804337968043109680A431A600F4B1B78DBB21A067B6804337968043109680A431A6000BF0C37BD4680BC704700BF0301004904010049EC46004037
:4030C000020100490101004900010049050100490601004980B485B000AF0346FB710A4B1B78DBB223F00103FB730749FB7903F00103DAB2FB7B1343DBB20B7000BF143764
:40310000BD4680BC704700BFC051004080B483B000AF0346FB710B490A4B1B78DBB25BB223F00E035AB297F9073003F00E035BB213435BB2DBB20B7000BF0C37BD4680BC34
:40314000704700BF6050004080B485B000AF0346FB710B4B1B78DBB223F04003FB730849FB799B01DBB203F04003DAB2FB7B1343DBB20B7000BF1437BD4680BC704700BF9F
:403180002051004080B483B000AF0346FB710B490A4B1B78DBB25BB223F00E035AB297F9073003F00E035BB213435BB2DBB20B7000BF0C37BD4680BC704700BF16500040ED
:4031C00080B485B000AF0346FB710B4B1B78DBB223F02003FB730849FB795B01DBB203F02003DAB2FB7B1343DBB20B7000BF1437BD4680BC704700BF2051004080B483B0ED
:4032000000AF0346FB710B490A4B1B78DBB25BB223F00E035AB297F9073003F00E035BB213435BB2DBB20B7000BF0C37BD4680BC704700BF1550004080B485B000AF034624
:40324000FB71094B1B78DBB203F07F03FB730649FB79DB01DAB2FB7B1343DBB20B7000BF1437BD4680BC70472051004080B483B000AF0346FB710B490A4B1B78DBB25BB23A
:4032800023F00E035AB297F9073003F00E035BB213435BB2DBB20B7000BF0C37BD4680BC704700BF1750004080B485B000AF0346FB710B4B1B78DBB223F01003FB73084915
:4032C000FB791B01DBB203F01003DAB2FB7B1343DBB20B7000BF1437BD4680BC704700BF2051004080B483B000AF0346FB710B490A4B1B78DBB25BB223F00E035AB297F97A
:40330000073003F00E035BB213435BB2DBB20B7000BF0C37BD4680BC704700BF1450004080B485B000AF0346FB710B4B1B78DBB223F00203FB730849FB795B00DBB203F016
:403340000203DAB2FB7B1343DBB20B7000BF1437BD4680BC704700BFC051004080B483B000AF0346FB710B490A4B1B78DBB25BB223F00E035AB297F9073003F00E035BB22F
:4033800013435BB2DBB20B7000BF0C37BD4680BC704700BF6150004080B485B000AF0346FB71094B1B78DBB203F07F03FB730649FB79DB01DAB2FB7B1343DBB20B7000BF18
:4033C0001437BD4680BC7047C051004080B483B000AF0346FB710B490A4B1B78DBB25BB223F00E035AB297F9073003F00E035BB213435BB2DBB20B7000BF0C37BD4680BCE6
:40340000704700BF6750004080B485B000AF0346FB710B4B1B78DBB223F04003FB730849FB799B01DBB203F04003DAB2FB7B1343DBB20B7000BF1437BD4680BC704700BFD5
:403440005051004080B483B000AF0346FB710B490A4B1B78DBB25BB223F00E035AB297F9073003F00E035BB213435BB2DBB20B7000BF0C37BD4680BC704700BF2E500040E2
:4034800080B485B000AF0346FB710B4B1B78DBB223F00803FB730849FB79DB00DBB203F00803DAB2FB7B1343DBB20B7000BF1437BD4680BC704700BF2051004080B483B0DB
:4034C00000AF0346FB710B490A4B1B78DBB25BB223F00E035AB297F9073003F00E035BB213435BB2DBB20B7000BF0C37BD4680BC704700BF1350004080B485B000AF034664
:40350000FB710B4B1B78DBB223F00403FB730849FB799B00DBB203F00403DAB2FB7B1343DBB20B7000BF1437BD4680BC704700BF2051004080B483B000AF0346FB710B494B
:403540000A4B1B78DBB25BB223F00E035AB297F9073003F00E035BB213435BB2DBB20B7000BF0C37BD4680BC704700BF1250004080B485B000AF0346FB710B4B1B78DBB2BA
:4035800023F00203FB730849FB795B00DBB203F00203DAB2FB7B1343DBB20B7000BF1437BD4680BC704700BF2051004080B483B000AF0346FB710B490A4B1B78DBB25BB26F
:4035C00023F00E035AB297F9073003F00E035BB213435BB2DBB20B7000BF0C37BD4680BC704700BF1150004080B485B000AF0346FB710A4B1B78DBB223F00103FB730749E9
:40360000FB7903F00103DAB2FB7B1343DBB20B7000BF1437BD4680BC704700BF2051004080B483B000AF0346FB710B490A4B1B78DBB25BB223F00E035AB297F9073003F0C4
:403640000E035BB213435BB2DBB20B7000BF0C37BD4680BC704700BF1050004080B485B000AF0346FB71094B1B78DBB203F07F03FB730649FB79DB01DAB2FB7B1343DBB2C2
:403680000B7000BF1437BD4680BC70471051004080B483B000AF0346FB710B490A4B1B78DBB25BB223F00E035AB297F9073003F00E035BB213435BB2DBB20B7000BF0C37D8
:4036C000BD4680BC704700BF0F50004080B485B000AF0346FB710B4B1B78DBB223F04003FB730849FB799B01DBB203F04003DAB2FB7B1343DBB20B7000BF1437BD4680BCA2
:40370000704700BF1051004080B483B000AF0346FB710B490A4B1B78DBB25BB223F00E035AB297F9073003F00E035BB213435BB2DBB20B7000BF0C37BD4680BC704700BFA7
:403740000E50004080B485B000AF0346FB710B4B1B78DBB223F02003FB730849FB795B01DBB203F02003DAB2FB7B1343DBB20B7000BF1437BD4680BC704700BF1051004040
:4037800080B483B000AF0346FB710B490A4B1B78DBB25BB223F00E035AB297F9073003F00E035BB213435BB2DBB20B7000BF0C37BD4680BC704700BF0D50004080B485B038
:4037C00000AF0346FB710B4B1B78DBB223F01003FB730849FB791B01DBB203F01003DAB2FB7B1343DBB20B7000BF1437BD4680BC704700BF1051004080B483B000AF0346C8
:40380000FB710B490A4B1B78DBB25BB223F00E035AB297F9073003F00E035BB213435BB2DBB20B7000BF0C37BD4680BC704700BF0C50004080B485B000AF0346FB710B4B5D
:403840001B78DBB223F00803FB730849FB79DB00DBB203F00803DAB2FB7B1343DBB20B7000BF1437BD4680BC704700BF1051004080B483B000AF0346FB710B490A4B1B78AA
:40388000DBB25BB223F00E035AB297F9073003F00E035BB213435BB2DBB20B7000BF0C37BD4680BC704700BF0B50004080B485B000AF0346FB710B4B1B78DBB223F004034C
:4038C000FB730849FB799B00DBB203F00403DAB2FB7B1343DBB20B7000BF1437BD4680BC704700BF1051004080B483B000AF0346FB710B490A4B1B78DBB25BB223F00E03EE
:403900005AB297F9073003F00E035BB213435BB2DBB20B7000BF0C37BD4680BC704700BF0A50004080B485B000AF0346FB71094B1B78DBB203F07F03FB730649FB79DB0124
:40394000DAB2FB7B1343DBB20B7000BF1437BD4680BC70475051004080B483B000AF0346FB710B490A4B1B78DBB25BB223F00E035AB297F9073003F00E035BB213435BB2FA
:40398000DBB20B7000BF0C37BD4680BC704700BF2F50004080B485B000AF0346FB710B4B1B78DBB223F04003FB730849FB799B01DBB203F04003DAB2FB7B1343DBB20B70FE
:4039C00000BF1437BD4680BC704700BFC051004080B485B000AF0346FB710B4B1B78DBB223F02003FB730849FB795B01DBB203F02003DAB2FB7B1343DBB20B7000BF1437A2
:403A0000BD4680BC704700BF5051004080B483B000AF0346FB710B490A4B1B78DBB25BB223F00E035AB297F9073003F00E035BB213435BB2DBB20B7000BF0C37BD4680BC9B
:403A4000704700BF2D50004080B485B000AF0346FB710A4B1B78DBB223F00103FB730749FB7903F00103DAB2FB7B1343DBB20B7000BF1437BD4680BC704700BF5051004091
:403A800080B483B000AF0346FB710B490A4B1B78DBB25BB223F00E035AB297F9073003F00E035BB213435BB2DBB20B7000BF0C37BD4680BC704700BF2850004080B485B01A
:403AC00000AF0346FB710B4B1B78DBB223F04003FB730849FB799B01DBB203F04003DAB2FB7B1343DBB20B7000BF1437BD4680BC704700BF6051004080B483B000AF034695
:403B0000FB710B490A4B1B78DBB25BB223F00E035AB297F9073003F00E035BB213435BB2DBB20B7000BF0C37BD4680BC704700BF3650004080B485B000AF0346FB71094B32
:403B40001B78DBB203F07F03FB730649FB79DB01DAB2FB7B1343DBB20B7000BF1437BD4680BC70476051004080B483B000AF0346FB710B490A4B1B78DBB25BB223F00E038D
:403B80005AB297F9073003F00E035BB213435BB2DBB20B7000BF0C37BD4680BC704700BF3750004080B485B000AF0346FB710B4B1B78DBB223F01003FB730849FB791B0180
:403BC000DBB203F01003DAB2FB7B1343DBB20B7000BF1437BD4680BC704700BF6051004080B483B000AF0346FB710B490A4B1B78DBB25BB223F00E035AB297F9073003F097
:403C00000E035BB213435BB2DBB20B7000BF0C37BD4680BC704700BF3450004080B485B000AF0346FB710B4B1B78DBB223F02003FB730849FB795B01DBB203F02003DAB249
:403C4000FB7B1343DBB20B7000BF1437BD4680BC704700BF6051004080B483B000AF0346FB710B490A4B1B78DBB25BB223F00E035AB297F9073003F00E035BB213435BB2B4
:403C8000DBB20B7000BF0C37BD4680BC704700BF3550004000000000142816D902B4012114381049097811F0C001890904B40E4A515C04BC00BF00BF00BF8841FDD500BFEF
:403CC00000BF02BC704700BF00BF70F10400FCD570470B050709EFF3108072B6704780F31088704700480040D23C000080B582B000AF0023BB711F4B1B78DBB203F0030374
:403D0000012B02D0022B04D012E01A4B1B79FB7111E0184B1B79DBB203F07F02164913465B0013449B000B440A331B78FB7102E00023FB7100BFFB79022B15D80F4B1A681A
:403D4000FB7913441B78022B06D0032B09D1FDF7A1FE0346BB7107E0FDF74CF90346BB7102E00023BB7100BFBB7918460837BD4680BD00BF00600040C4C1FF1FB8C1FF1FA3
:403D8000014B1868704700BF58C1FF1F0E4B70B51E460E4C0025E41AA410A54204D056F8253098470135F8E700F0E0F9084B094C1E46E41AA4100025A54204D056F825301B
:403DC00098470135F8E770BD7841000078410000784100008041000010B5431E0A44914204D011F8014B03F8014FF8E710BD03460244934202D003F8011BFAE7704700006A
:403E00000000000005001401C8490040190000510040100030510040200000000140001000140140000800400140000A004C014000020050014020000145004005520040E6
:403E4000010D0140030E0140040F0140021501400217014002190140021B01400340014003410140054201400443014005440140044501400246014006470140074801400D
:403E8000034901400B4C01400A4D014002500140025101407E0228102910602061307C40B52056085B045D90584059208840D60CE840EA01EA02EE0AEA02EE0AE840EA0138
:403EC00033813640CC709F01A640A7803E109F01A640A780CE2096109F01A640A780122014208820C40CE2019820A220B620EA089820A22008080B040F409820A220C20E3E
:403F000024029610AE40AF81C820EA40EE50AA10B401EA801040132014807A207C209820A220AC08AF44C40EDE03640878407C8098C8AB20B408D801DC01DE04E8020101C2
:403F40000F01002A03C00000300000C3F3003000000000004000000000000000C000000000FFFF000000000000FFFF000000000000F1F1001000000000F0F0000000000060
:403F800030313233343536373839414243444546000000001201000202000008B40432F2010001048001000009024300020101803209040000010202000205240010010487
:403FC000240202052406000105240100010705810308000A09040100020A000003070582024000000705030240000000040309042C03430079007000720065007300730032
:404000002000530065006D00690063006F006E0064007500630074006F0072003803430044004300200043006F006D006D0075006E00690063006100740069006F006E0086
:40404000200049006E007400650072006600610063006500260343004400430020004400610074006100200049006E00740065007200660061006300650010035500530096
:4040800042005500410052005400000002030000320005010902A1010901A100050919012903150025019503750181029501750581010501093009311581257F7508950274
:4040C0008106C0C00000000000008103080002000100820240000A000100030240000A00020A000001000000A83F000003000000C84000000000000000000000000000000D
:404100000000000000000000E040000001000000943F0000000000000000000001000000E4400000010000000C41000012034D005300460054003100300030000100000037
:404140002800000000010400010000000000000000014359555342000000303030303100000000000000000043000000F8B500BFF8BC08BC9E4670474D0000001909000068
:40418000F8B500BFF8BC08BC9E46704729000000A0410000C8C0FF1F98000000080100000000000000C2010000000800C201000000080000A12000000000020000000000D6
:4041C0000090D00300FA0000400000000000007D000000000000000000000000000000000000000000000000000000000000000068410000000000000000000000000000FC
:40420000000000000000000000000000000000000000000000000000000000000000000000000000000000000000000000000000F8C0FF1F000000000000000000000000A8
:40424000000000000000000000000000000000000000000000000000000000000000000000000000000000000000000000000000000000000000000000000000000000003E
:4042800000000000000000000000000000000000000000000000000000000000000000000000000000000000000000000000000000000000000000000000000000000000FE
:4042C00000000000000000000000000000000000000000000000000000000000000000000000000000000000000000000000000000000000000000000000000000000000BE
:40430000000000000000000000000000000000000000000000000000000000000000000000000000000000000000000000000000000000000000000000000000000000007D
:0200000480007A
:0200000490006A
:0400000000004005B7
:0200000490105A
:04000000BC90ACAF55
:0200000490303A
:0200000030A22C
:0200000490402A
:4000000000000000000000000000000000000000000000000000000000000000000000000000000000000000000000000000000000000000000000000000000000000000C0
:400040000000000000000000000000000000000000000000000000000000000000000000000000000000000000000000000000000000000000000000000000000000000080
:0200000490501A
:0C00000000012E13306900012E2C610B52
:00000001FF