:400000000040002011000000B9130000B913000080B500AF024A034B1B68136001F0FEF9BC760040FA46004010B5054C237833B9044B13B10448AFF300800123237010BDC7
:4000400060C1FF1F000000003C530000084B10B51BB108490848AFF300800848036803B910BD074B002BFBD0BDE81040184700BF0000000064C1FF1F3C530000C8C0FF1FF4
:400080000000000080B5D2B000AF0023A7F8463162B60121002001F055FA8C4B4FF400421A6003F04BFD01F01DFC0346002B06D001F00CFC0346002B01D001F00BFE01F079
:4000C00005FC0346002BEED001F08EFE0346002BE9D007F58273184601F0AAFE0346A7F84431B7F84431002BDDD000BF01F08EFE0346002BFAD097F80431722B03D097F8A5
:400100000431522B11D1724800F01CF93B1D184600F032FB3B1D184600F062FB00BF01F075FE0346002BFAD0BFE097F80431772B03D097F80431572B1AD1B7F84631002BDB
:4001400003D1644800F0FEF8AFE0634800F0FAF8B7F84631184600F029FC0346012B03D15E4800F0EFF8A0E05D4800F0EBF89CE097F80431622B03D097F80431422B3FD1C5
:40018000B7F84631002B03D1524800F0DBF88CE0B7F84631022B08D1524800F0D3F800F0FFF8514800F0CEF87FE0B7F84631052B08D14E4800F0C6F800F01AFE4C4800F03C
:4001C000C1F872E0B7F84631042B08D1494800F0B9F800F009FD484800F0B4F865E0B7F84631012B08D1454800F0ACF800F0D8F8434800F0A7F858E0424800F0A3F854E086
:4002000097F80431312B06D10123A7F846313E4800F098F849E097F80431322B06D10323A7F84631394800F08DF83EE097F80431332B06D10223A7F84631354800F082F8FB
:4002400033E097F80431342B06D10423A7F84631304800F077F828E097F80431352B06D10523A7F846312C4800F06CF81DE02B4800F068F82A4800F065F82A4800F062F819
:40028000294800F05FF8294800F05CF8284800F059F8284800F056F8274800F053F8274800F050F8264800F04DF8B7F84431402B7FF4F9AE00BF01F0A9FD0346002BFAD041
:4002C0000021002001F05AFDEDE600BF00E100E040530000585300007853000090530000AC530000E45300002454000064540000A0540000DC5400001455000048550000A6
:4003000080550000B8550000D4550000F0550000085600002C560000485600006856000098560000B8560000D4560000FC560000185700003C570000505700006457000055
:400340008857000080B582B000AF7860786804F0EEFB03469BB21946786801F00FFD00BF01F054FD0346002BFAD000BF0837BD4680BD00BF80B582B000AF0346FB71FB79A6
:400380000121184600F02EF9FA2003F013FFFB790021184600F026F900BF0837BD4680BD80B500AF0C21002000F01CF90C21012000F018F90C21022000F014F90C21032026
:4003C00000F010F90C21042000F00CF90C21052000F008F90C21062000F004F90C21072000F000F90C21082000F0FCF80C21092000F0F8F80C210A2000F0F4F80C210B2004
:4004000000F0F0F80C210C2000F0ECF80C210D2000F0E8F80C210E2000F0E4F80C210F2000F0E0F80C21102000F0DCF80C21112000F0D8F80C21122000F0D4F80C21132088
:4004400000F0D0F80C21142000F0CCF80C21152000F0C8F80C21162000F0C4F80C21172000F0C0F80C21182000F0BCF80C21192000F0B8F80021002000F0B4F80021012054
:4004800000F0B0F80021022000F0ACF80021032000F0A8F80021042000F0A4F80021052000F0A0F80021062000F09CF80021072000F098F80021082000F094F800210920B8
:4004C00000F090F800210A2000F08CF800210B2000F088F800210C2000F084F800210D2000F080F800210E2000F07CF800210F2000F078F80021102000F074F80021112038
:4005000000F070F80021122000F06CF80021132000F068F80021142000F064F80021152000F060F80021162000F05CF80021172000F058F80021182000F054F800211920B7
:4005400000F050F81920FFF715FF1020FFF712FF0B20FFF70FFF0C20FFF70CFF0E20FFF709FF0F20FFF706FF0020FFF703FF0120FFF700FF0320FFF7FDFE0420FFF7FAFEC3
:400580000220FFF7F7FE0620FFF7F4FE0520FFF7F1FE0720FFF7EEFE0920FFF7EBFE0820FFF7E8FE0A20FFF7E5FE0D20FFF7E2FE1120FFF7DFFE1220FFF7DCFE1320FFF7CC
:4005C000D9FE1420FFF7D6FE1520FFF7D3FE1620FFF7D0FE1720FFF7CDFE1820FFF7CAFE00BF80BD80B582B000AF03460A46FB711346BB71FB79192B00F2BA8001A252F8D5
:4006000023F000BF6D06000077060000810600008B060000950600009F060000A9060000B3060000BD060000C7060000D1060000DB060000E5060000EF060000F906000011
:40064000030700000D07000017070000210700002B070000350700003F07000049070000530700005D07000067070000BB79184603F014FF7CE0BB79184603F07FFE77E099
:40068000BB79184604F0BEF872E0BB79184603F023FF6DE0BB79184604F096F868E0BB79184603F0C7FF63E0BB79184603F0DCFF5EE0BB79184603F0F5FF59E0BB791846EC
:4006C00004F00EF854E0BB79184604F027F84FE0BB79184604F040F84AE0BB79184604F0E9F845E0BB79184604F0C6F840E0BB79184604F0A5F83BE0BB79184604F012F951
:4007000036E0BB79184604F0EFF831E0BB79184604F040F82CE0BB79184603F0F7FE27E0BB79184603F082FE22E0BB79184603F041FE1DE0BB79184603F05AFE18E0BB7909
:40074000184603F001FF13E0BB79184603F088FE0EE0BB79184603F033FF09E0BB79184603F010FF04E0BB79184603F047FF00BF00BF0837BD4680BD80B584B000AF78606C
:400780005023FB734FF48073BB8100233B7200237B7207F10801F87B0023022203F0BAFB00BF03F0C3FC034603F00203002BF8D0012003F021FDBB89DBB2013BDAB2F87BC0
:4007C0000023796803F02AFC00BF03F0AFFC034603F00103002BF8D000BF1037BD4680BD80B598B000AF7860002387F850300023A7F85E300023A7F85C300023A7F85E30F2
:40080000C3E000233B73B7F85E301A0107F10C036249184604F058F90023A7F85C301DE0B7F85E301A01B7F85C3013441A467B6813441B781A4607F150035949184604F096
:4008400043F907F1500207F10C031146184604F05FF9B7F85C300133A7F85C30B7F85C300F2BDDD907F10C03184604F060F903461A4607F10C0313444A4A1188927819809C
:400880009A7007F10C03184604F051F903469AB207F10C031146184601F070FA00BF01F0B5FA0346002BFAD000233B730023A7F85A303FE0B7F85E301A01B7F85A3013441E
:4008C0001A467B6813441B78202B1DD9B7F85E301A01B7F85A3013441A467B6813441B787E2B11D8B7F85A30B7F85E201101B7F85A200A4411467A680A44127807F160018A
:400900000B4403F8542C07E0B7F85A3007F1600213442E2203F8542CB7F85A30013307F160021344002203F8542CB7F85A300133A7F85A30B7F85A300F2BBBD907F10C03F2
:40094000184604F0F4F803461A4607F10C031344154A1188927819809A7007F10C03184604F0E5F803469AB207F10C031146184601F004FA00BF01F049FA0346002BFAD0E6
:40098000B7F85E300133A7F85E30B7F85E300F2B7FF637AF00BF6037BD4680BDA0570000A8570000B0570000B457000080B590B000AF0346FB800023FB87FB88012B4BD1D1
:4009C00000237B8743E00023BB87BB8F5A1CBA8707F140021344002203F8342CBB8F5A1CBA8719467B8F5B01DAB207F140030B4403F8342C00233B871EE0FB8F6C2B0CD81C
:400A0000BB8F5A1CBA871946FB8F654AD25C07F140030B4403F8342C08E0BB8F5A1CBA8707F140021344002203F8342CFB8F0133FB873B8F01333B873B8F1F2BDDD907F151
:400A40000C03184600F0B2F87B8F01337B877B8F032BB8D901239EE0FB88022B4BD10023FB8643E00023BB87BB8F5A1CBA8707F140021344002203F8342CBB8F5A1CBA87BC
:400A80001946FB8E5B01DAB207F140030B4403F8342C0023BB861EE0FB8F742B0CD8BB8F5A1CBA871946FB8F3E4AD25C07F140030B4403F8342C08E0BB8F5A1CBA8707F1AC
:400AC00040021344002203F8342CFB8F0133FB87BB8E0133BB86BB8E1F2BDDD907F10C03184600F063F8FB8E0133FB86FB8E032BB8D901234FE0FB88032B4BD100237B861F
:400B000043E00023BB87BB8F5A1CBA8707F140021344002203F8342CBB8F5A1CBA8719467B8E5B01DAB207F140030B4403F8342C00233B861EE0FB8F682B0CD8BB8F5A1C45
:400B4000BA871946FB8F184AD25C07F140030B4403F8342C08E0BB8F5A1CBA8707F140021344002203F8342CFB8F0133FB873B8E01333B863B8E1F2BDDD907F10C031846B3
:400B800000F014F87B8E01337B867B8E032BB8D9012300E0002318464037BD4680BD00BFB857000028580000A058000080B584B000AF78605023FB732223BB73BA7BF87BC5
:400BC0000023796803F0A6F900BF03F0AFFA034603F00203002BF8D00A2003F0EBFA00BF1037BD4680BD00BF80B500AF0C210020FFF7F8FC0C210120FFF7F4FC0C2102202B
:400C0000FFF7F0FC0C210320FFF7ECFC0C210420FFF7E8FC0C210520FFF7E4FC0C210620FFF7E0FC0C210720FFF7DCFC0C210820FFF7D8FC0C210920FFF7D4FC0C210A2078
:400C4000FFF7D0FC0C210B20FFF7CCFC0C210C20FFF7C8FC0C210D20FFF7C4FC0C210E20FFF7C0FC0C210F20FFF7BCFC0C211020FFF7B8FC0C211120FFF7B4FC0C211220F8
:400C8000FFF7B0FC0C211320FFF7ACFC0C211420FFF7A8FC0C211520FFF7A4FC0C211620FFF7A0FC0C211720FFF79CFC0C211820FFF798FC0C211920FFF794FC012102209B
:400CC000FFF790FC00210020FFF78CFC00210120FFF788FC00210320FFF784FC00210420FFF780FC00210520FFF77CFC00210620FFF778FC00210720FFF774FC002108202A
:400D0000FFF770FC00210920FFF76CFC00210A20FFF768FC00210B20FFF764FC00210C20FFF760FC00210D20FFF75CFC00210E20FFF758FC00210F20FFF754FC00211020A7
:400D4000FFF750FC00211120FFF74CFC00211220FFF748FC00211320FFF744FC00211420FFF740FC00211520FFF73CFC00211620FFF738FC00211720FFF734FC0021182027
:400D8000FFF730FC00211920FFF72CFC0120FFF7F1FA0320FFF7EEFA0420FFF7EBFA0B20FFF7E8FA0C20FFF7E5FA0E20FFF7E2FA0F20FFF7DFFA1020FFF7DCFA0620FFF77D
:400DC000D9FA0520FFF7D6FA0720FFF7D3FA0920FFF7D0FA0820FFF7CDFA0A20FFF7CAFA0D20FFF7C7FA0020FFF7C4FA00BF80BD80B500AF0C210020FFF7F4FB0C21012081
:400E0000FFF7F0FB0C210220FFF7ECFB0C210320FFF7E8FB0C210420FFF7E4FB0C210520FFF7E0FB0C210620FFF7DCFB0C210720FFF7D8FB0C210820FFF7D4FB0C21092086
:400E4000FFF7D0FB0C210A20FFF7CCFB0C210B20FFF7C8FB0C210C20FFF7C4FB0C210D20FFF7C0FB0C210E20FFF7BCFB0C210F20FFF7B8FB0C211020FFF7B4FB0C21112006
:400E8000FFF7B0FB0C211220FFF7ACFB0C211320FFF7A8FB0C211420FFF7A4FB0C211520FFF7A0FB0C211620FFF79CFB0C211720FFF798FB0C211820FFF794FB0C21192086
:400EC000FFF790FB00210020FFF78CFB00210120FFF788FB00210320FFF784FB00210420FFF780FB00210520FFF77CFB00210620FFF778FB00210720FFF774FB0021082030
:400F0000FFF770FB00210920FFF76CFB00210A20FFF768FB00210B20FFF764FB00210C20FFF760FB00210D20FFF75CFB00210E20FFF758FB00210F20FFF754FB00211020AD
:400F4000FFF750FB00211120FFF74CFB00211220FFF748FB00211320FFF744FB00211420FFF740FB00211520FFF73CFB00211620FFF738FB00211720FFF734FB002118202D
:400F8000FFF730FB00211920FFF72CFB01210220FFF728FB1120FFF7EDF91220FFF7EAF91420FFF7E7F91520FFF7E4F91720FFF7E1F91920FFF7DEF91320FFF7DBF91620D2
:400FC000FFF7D8F91820FFF7D5F90620FFF7D2F90520FFF7CFF90720FFF7CCF90920FFF7C9F90820FFF7C6F90A20FFF7C3F90D20FFF7C0F90020FFF7BDF90120FFF7BAF976
:401000000B20FFF7B7F90C20FFF7B4F90E20FFF7B1F90F20FFF7AEF91020FFF7ABF90320FFF7A8F90420FFF7A5F900BF80BD00BF80B582B000AF786039603A680021786855
:4010400003F039FD00BF0837BD4680BD80B584B000AFF860B9607A607A68B968F86803F01FFD00BF1037BD4680BD00BF80B584B000AFF860B9607A607A68B968F86803F076
:401080000FFD00BF1037BD4680BD00BF80B483B000AF0346FB71FEE780B487B000AF7860396000233B6100237B6127E07B699B007A6813441B68BB60BB68FB73BB6823F002
:4010C000FF03BB6014E03B695B003A6813441B781A46BB68134419463B695B003A6813445B780B703B6901333B61FB7B013BFB73FB7B002BE7D17B6901337B617B69162BCF
:40110000D4D900BF1C37BD4680BC704780B582B000AF334B4FF6FF721A80324B1B221A70042231493148FFF7A1FF314B06221A70304B52221A70304B304A1278D2B21A70EF
:401140002F4B40F618021A802E4B41F251221A800023FB7019237B6014E0FB785B00DAB2294B1B78DBB203F00103DBB21343DBB203F00303FB704FF4F07003F0F1FB7B689B
:40118000013B7B607B68002B02D0FB78032BE4D17B68002B02D10320FFF778FF1B4B4FF480721A80194B07221A70194B00221A70184B48221A70154B00221A70164B00222F
:4011C0001A70164B02221A70154A154B1B78DBB243F00103DBB2137000BF0837BD4680BD80400040824000400C590000004100400043004000420040A14600400F01004985
:401200002242004020420040254200400440004006400040084000400940004001400040A243004080B483B000AF0B4B1B78FB710A4AFB7903F00703DBB21370084AFB79FA
:401240001B09DBB21370074B44221A7000BF0C37BD4680BC704700BFCF0100496E5800406F5800407658004080B582B000AF72B63B4B60221A70FFF749FF394B00221A70CF
:401280000023FB7113E0FA7913465B0013445B00344A13443B603B681A683B689B889BB219461046FFF7C4FEFB790133FB71FB79072BE8D92C492D48FFF7EEFE2C4A2C4B8A
:4012C0001B78DBB243F00203DBB21370294A294B1B78DBB243F00203DBB21370264A264B1B78DBB243F04003DBB21370234A234B1B78DBB243F01003DBB213700A222049CA
:401300002048FFF7B3FE0A221F492048FFF7AEFE08221F491F48FFF7A9FE08221E491F48FFF7A4FE08221E491E48FFF79FFE08221D491E48FFF79AFE1D4A1D4B1B78DBB2DD
:4013400043F00803DBB21370FFF76CFF0E220A491848FFF77BFE00BF0837BD4680BD00BF00480040105900009C590000405900000350014013500140A0430040C243004050
:40138000505A0000C05100405C5A0000F0510040685A000012510040705A000022510040785A000052510040805A00006251004022430040B043004080B500AF03F044FBA9
:4013C00003461B680C2B00D1FEE7FEE780B584B000AF78600F4B1A687B6813441A460E4BD31A802B09DC0B4B1B68FB60094B1A687B681344074A136007E003F025FB0246C9
:401400000C2313604FF0FF33FB60FB6818461037BD4680BDCCC0FF1F88C2FF1F80B586B000AF224B7B61224B3B61204B7B6135E03B691B68FB603B695B68BB603B699B6871
:401440003B6000237B600CE0FB681A68BB681A60BB680433BB60FB680433FB607B6804337B607A683B689A42EED13B69DB683B6000237B6008E0BB6800221A60BB68043365
:40148000BB607B6804337B607A683B689A42F2D13B6910333B617B69013B7B617B69002BC6D103F0D7FAFEF7EDFDFEE701000000CC5C000080B582B000AF184B184A1A60CD
:4014C000184A184B1B6843F40073136000237B600FE07B68032B04D8134A7B6852F8233000E0124B12497A6841F822307B6801337B607B682F2BECD90E4B1B78DAB20E4B06
:401500001A700E4B0A4A1A60FFF7AEFE0C4B00221A6000BF0837BD4680BD00BF0CED00E00004FA0514ED00E000000000B913000000C0FF1FBC760040C4C0FF1F08ED00E018
:40154000C0C0FF1F80B582B000AF03460A46FB711346BB71094B1B78002B04D100F010F8064B01221A70BA79FB791146184600F0D9F800BF0837BD4680BD00BF7CC1FF1FDB
:4015800080B582B000AF03F00AFA0346FB71544A534B1B78DBB243F00103DBB21370514A504B1B78DBB243F00103DBB213704E4B01221A704D4B02221A704D4A4C4B1B78DC
:4015C000DBB203F07F03DBB21370002002F014FE484A484B1B78DBB223F00603DBB21370454A454B1B78DBB223F02003DBB21370404A404B1B78DBB243F00103DBB2137043
:40160000012002F0F9FD282002F0F6FD3B4A3B4B1B78DBB203F07F03DBB21370374A374B1B78DBB223F04003DBB21370314A314B1B78DBB243F00203DBB21370022002F0C8
:40164000DBFD2C4A2B4B1B78DBB243F00403DBB213702B4B00221A702A4B00221A70FB79184603F0A0F90721172002F001FE2649172002F0D5FD0721182002F0F9FD23492D
:40168000182002F0CDFD0721152002F0F1FD2049152002F0C5FD0721002002F0E9FD1D49002002F0BDFD0721012002F0E1FD1A49012002F0B5FD0721022002F0D9FD1749A2
:4016C000022002F0ADFD07210C2002F0D1FD14490C2002F0A5FD00BF0837BD4680BD00BFA5430040B54300409D60004009600040106000409443004012600040F8510040B6
:401700008460004085600040252600000D1F0000192600003125000079250000C5250000ED29000080B584B000AF03460A46FB711346BB710023FB7306E0FB7B334A012188
:40174000D154FB7B0133FB73FB7B012BF5D9304AFB7913702F4B00221A702F4B00221A702E4B00221A702E4B00221A702D4B00221A702D4B00221A702C4B00221A702C4BD3
:401780004FF400021A602A4B4FF080721A60284B4FF400121A60264B01221A60244B02221A60234B04221A60BB79002B02D0012B09D011E01F4A1F4B1B78DBB223F00103AE
:4017C000DBB2137011E01B4A1A4B1B78DBB243F00103DBB2137008E0164A164B1B78DBB243F00103DBB2137000BF134B03221A70124B80221A70012003F0B2F8104B042213
:401800001A7000BF1037BD4680BD00BF40C2FF1FA5C1FF1FA8C1FF1FC4C1FF1FC7C1FF1FBCC1FF1FC6C1FF1FC9C1FF1FA4C1FF1F00E100E009600040286000400860004060
:401840001260004080B483B000AF0023FB7106E0FB79144A0121D154FB790133FB71FB79012BF5D9104B00221A70104B00221A700F4B00221A700F4B00221A700E4B0022FB
:401880001A700E4B00221A700D4B00221A700D4B03221A700C4B80221A7000BF0C37BD4680BC704740C2FF1FA8C1FF1FC4C1FF1FC7C1FF1FBCC1FF1FC6C1FF1FC9C1FF1F3B
:4018C000A4C1FF1F286000400860004080B400AF034B1B78DBB21846BD4680BC704700BFC7C1FF1F80B483B000AF0023FB71084B1B78DBB2002B05D0054B1B78FB71044B35
:4019000000221A70FB7918460C37BD4680BC7047C4C1FF1F80B483B000AF0346FB71FA79064913465B0013449B000B4401331B78DBB218460C37BD4680BC7047CCC1FF1F35
:4019400080B485B000AF0346FB710023FB81FB79002B1CD0FB79082B19D8104AFB791B0113441B78DBB29BB203F00F03FB81FB891B029AB20949FB791B010B4401331B78C4
:40198000DBB29BB21343FB81FB89023BFB81FB8918461437BD4680BC704700BFFC5F0040B0B485B000AF03463960FB711346BB80FB79002B6DD0FB79082B6AD8B988FA791E
:4019C000364813465B0013449B00034406331B889BB2C3F5007399420CD9FA792F4913465B0013449B000B4406331B889BB2C3F50073BB802A4CF979BB881B0A9BB2D8B2D2
:401A0000FA79264D13465B0013449B002B4403331B78DBB20343DAB20B0123441A70204AFB79B988C9B21B01134401330A461A703B68002B13D00023FB810CE01948FB795A
:401A4000FA8939680A4412781B01034408331A70FB890133FB81FA89BB889A42EED3FA790E4913465B0013449B000B44013300221A700B48F979FA79084C13465B00134475
:401A80009B00234405331B78DAB20B01034402331A7000BF1437BD46B0BC7047CCC1FF1FFC5F00407060004080B584B000AF03463960FB711346BB803B68002B30D0FB79F9
:401AC000002B2DD0FB79082B2AD8FB791846FFF737FF03461A46BB88934205D9FB791846FFF72EFF034600E0BB88BB800023FB810DE0FB893A6813440D49FA7912010A44A9
:401B000008321278D2B21A70FB890133FB81FA89BB889A42EDD3FB79184600F00BF801E00023BB80BB8818461037BD4680BD00BF7060004090B482B000AF0346FB71FB79F4
:401B4000002B1CD0FB79082B19D8FA790E4913465B0013449B000B44013300221A700B48F979FA79084C13465B0013449B00234405331B78DAB20B01034402331A7000BF56
:401B80000837BD4690BC7047CCC1FF1FFC5F004080B582B000AF0023FB71314B1B79DBB2184600F067F80346BB712D4B1B78DBB25BB2002B15DA2A4B5B78DBB2212B00D086
:401BC00048E0284B07221A80BA791346DB009B1A254A1344234A536000F012FB0346FB7138E01F4B5B78DBB2202B02D0222B1AD030E01C4B07221A80BA791346DB009B1A47
:401C0000194A1344174A5360BB79BA7917498A5CD2B242F00102D1B2144AD15400F06EFB0346FB7116E0BB790D4A9278D2B291B20F4A22F81310BB79BA790C498A5CD2B24E
:401C400042F00202D1B2094AD15400F0F5FB0346FB7100BFFB7918460837BD4680BD00BF00600040B0C1FF1FD0C0FF1F8CC1FF1FA0C1FF1F80B485B000AF0346FB71002318
:401C8000FB73FF23BB7317E0FB7B104AD35C7B737A7B0F4913465B0013449B000B440A331B78DBB2FA799A4203D1FB7BBB730223FB73FB7B0133FB73FB7B012BE4D9BB7BDC
:401CC00018461437BD4680BC704700BF94C1FF1FCCC1FF1F80B582B000AF0023BB71224B00221A70214B00221A70204B00225A700023FB7110E0FB791D4AD35C7B717B7912
:401D0000002B06D07B79082B03D87B791846FFF711FFFB790133FB71FB79012BEBD9154B1B78DBB2002B18D0114B1B78DBB2002B13D0114B1B78DBB2002B0ED00D4B1B7843
:401D4000DBB2082B09D80A4B1B78DBB2082B04D8094B1B78DBB2082B01D90123BB71BB7918460837BD4680BD7DC1FF1F8CC1FF1F98C1FF1F90C1FF1F94C1FF1F80B584B0D3
:401D800000AF78600B467B80144B1B781A46144B9B5CFB73FA7B134913465B0013449B000B4408331B889BB27A889A420CD9FA7B0C4913465B0013449B000B4408331B88E9
:401DC0007B80002002F0EAF97A88FB7B79681846FFF7E6FD00BF1037BD4680BD7DC1FF1F90C1FF1FCCC1FF1F80B500AF054B1B781A46054B9B5CDBB21846FFF78BFD034687
:401E0000184680BD7DC1FF1F98C1FF1F80B500AF054B1B781A46054B9B5CDBB21846FFF779FD0346184680BD7DC1FF1F90C1FF1F80B584B000AF78600D4B1B781A460D4B2D
:401E40009B5CFB73FA7B0C4913465B0013449B000B4408331B889AB2FB7B79681846FFF723FE0346BB81BB8918461037BD4680BD7DC1FF1F98C1FF1FCCC1FF1F80B485B0B3
:401E800000AF78600B46FB701346BB707B68DB7803F00303FB737B689B785BB2002B1ADAFB7B032B0AD0BB7803F001031449FA78CA54BB7843F00103BB701BE0BB789B08A1
:401EC000DBB203F001030F49FA78CA54BB7843F00403BB700EE0FB7B032B0BD0BB785B08DBB203F001030849FA78CA54BB7843F00203BB70BB7818461437BD4680BC70470E
:401F000090C1FF1F94C1FF1F98C1FF1F80B582B000AF374B1B78BB71BB7903F01003002B62D00123FB7197F90630002B12DABB7903F00F03012B02D00023FB711CE000F03B
:401F400061F82C4B1B78DBB25BB2002B14DA0023FB7111E0BB7903F04003002B02D000F095F809E0BB7903F02003002B02D000F0B3F801E00023FB71FB79002B34D01C4BA2
:401F80001B78BB7197F90630002B2DDB1A4B1B78DAB21A4B1B78DBB21343BB71184ABB791370174B1B78DBB2BA799A421CD1114B1B78FB710E4B1B78DBB223F07F03BB71B2
:401FC000BB79002B0AD10A4B0A4A1278D2B21A70074B1B78DBB203F00F03FB71054B1B78DBB2FA799A42E2D100BF0837BD4680BD28600040C5C1FF1F3AC2FF1FC8C1FF1FA6
:402000002960004080B582B000AF1D4B1B78FB711B4AFB7913701A4B1B78FB7197F90730002B03DA174AFB79137025E0022000F045FA154B1B78DBB203F06003202B08D024
:40204000402B0BD0002B0ED100F0D6FC0346FB710CE002F0AFFC0346FB7107E001F0DEFC0346FB7102E00023FB7100BFFB79002B02D1044B03221A7000BF0837BD4680BD16
:4020800028600040C5C1FF1F0060004080B500AF104B1B78DBB2062B19D801A252F823F0CF200000CF200000BD200000CF200000C3200000CF200000C920000000F0F8F84E
:4020C00006E000F0A7F903E000F0D2F900E000BF00BF80BDA8C1FF1F80B500AF124B1B78DBB2062B1DD801A252F823F0232100002321000009210000232100000F210000FD
:40210000232100001521000000F0D8F80AE000F027F907E0032000F0D1F9044B03221A7000E000BF00BF80BDA8C1FF1FC5C1FF1F80B483B000AF0023FB71294B1B78DBB2AA
:402140009AB2284B1B889BB213449AB2254B1A8015E02549FB79254A52681278D2B2CA54224B5B680133214A5360FB790133FB711E4B1B889BB2013B9AB21C4B1A801B4BF9
:402180001B889BB2002B02D0FB79072BE1D9144B1B78DBB2082B02D0FB79002B0FD0144B1B78DBB283F07F03DB43DAB2104B1A70104B0F221A70104B02221A7005E00D4B71
:4021C00002221A700C4B02221A700C4AFB791370034AFB79137000BF0C37BD4680BC7047A4C1FF1FA6C1FF1F00600040B0C1FF1F3AC2FF1FC5C1FF1FA8C1FF1FC8C1FF1F80
:4022000080B582B000AF164B1B889BB2002B02D100F02EF81EE0134B02221A70124B00221A7000F06BF9114BDB79DBB29BB21B029AB20E4B9B79DBB29BB21343FB80084B5E
:402240001B889BB2FA889A4202D2054AFB881380FFF76EFF012318460837BD4680BD00BFB0C1FF1FA8C1FF1F3AC2FF1F0060004080B400AF094B02221A70094B80221A707F
:40228000084B0F221A70084B00221A70074B00221A7001231846BD4680BC7047A8C1FF1F3AC2FF1FC5C1FF1FA4C1FF1FC8C1FF1F80B500AFFFF73CFF00BF80BD80B500AF37
:4022C0000A4B1B78DBB29AB2094B1B889BB213449AB2074B1A80074B00221A70012000F0EDF8054B03221A7000BF80BDA4C1FF1FA6C1FF1FA8C1FF1FC5C1FF1F80B582B0C1
:4023000000AF124B04221A70114B80221A7000F0F5F8104BDB79DBB29BB21B029AB20D4B9B79DBB29BB21343FB800B4B1B889BB2FA889A4202D2084AFB881380074B0B2214
:402340001A70012318460837BD4680BDA8C1FF1F3AC2FF1F00600040B0C1FF1FC5C1FF1F80B483B000AF0023BB71234B1B78DBB203F00F03DBB2023BFB71FB799AB21F4B06
:402380001B889BB213449AB21C4B1A8018E01C4B5B681C49BA798A5CD2B21A70184B5B680133174A5360BB790133BB71FB79013BFB71134B1B889BB2013B9AB2104B1A80F2
:4023C0000F4B1B889BB2002B02D0FB79002BDED10D4AFB7913700D4B1B78DBB283F07F03DB43DAB2094B1A70094B0B221A7000BF0C37BD4680BC704729600040A6C1FF1FB4
:40240000B0C1FF1F00600040C8C1FF1F3AC2FF1FC5C1FF1F80B500AF054B00221A70012000F04CF8034B03221A7000BF80BD00BFA8C1FF1FC5C1FF1F80B400AF084B062292
:402440001A70084B06221A70074B80221A70074B00221A7001231846BD4680BC704700BFA8C1FF1FC5C1FF1F3AC2FF1FC8C1FF1F80B500AF0D4B1B78DBB2002B0AD00C4A77
:402480000A4B1B78DBB263F07F03DBB21370074B00221A70074B00221A70012000F00EF8054B03221A7000BF80BD00BFC6C1FF1F08600040A8C1FF1FC5C1FF1F80B483B016
:4024C00000AF0346FB710B4B9B68002B0CD0094B9B68FA791A70074B9B68074A128892B25A80044B00229A6000BF0C37BD4680BC704700BFB0C1FF1FA6C1FF1F80B400AF4D
:40250000094B00221A80094B9B68002B07D0074B9B6800221A70054B9B6800225A8000BFBD4680BC704700BFA6C1FF1FB0C1FF1F80B400AF0D4B01221A700D4B9B7C0D4BAB
:402540001B7BDBB203F00303012B08D0094BDB7BDBB283F07F03DB43DAB2064BDA73054B01225A7300BFBD4680BC70470B600040FC5F0040CCC1FF1F80B400AF0E4B022281
:402580001A700E4B93F822300D4B1B7EDBB203F00303012B08D00A4BDB7EDBB283F07F03DB43DAB2064BDA76054B01225A7600BFBD4680BC704700BF0B600040FC5F004068
:4025C000CCC1FF1F80B400AF104B04221A70104B93F832300F4B93F82430DBB203F00303012B0AD00B4B93F82730DBB283F07F03DB43DAB2074B83F82720064B012283F8CE
:40260000252000BFBD4680BC704700BF0B600040FC5F0040CCC1FF1F80B400AF00BFBD4680BC704780B500AFFFF70CF900BF80BD80B582B000AF0023FB71714B1B79BB715C
:402640006F4B1B78DBB25BB2002B6CDA6C4B5B78DBB2013B052B00F2BE8001A252F823F0C3260000DD26000007270000D7270000D727000079260000614BDB78DBB2212BC2
:402680000CD100F0C7F85F4B1B889BB2002B00F0A480FFF7B5FD0346FB719EE0584BDB78DBB2222B40F0998000F0F2F8554B1B889BB2002B00F09180FFF7A2FD0346FB71E1
:4026C0008BE000F02DF94F4B1B889BB2002B00F08680FFF795FD0346FB7180E0BB79012B7FD8474B9B78DBB2002B7AD1454B01221A80BB79444A1344424A5360FFF780FD9A
:402700000346FB716DE0BB79012B6CD83D4B01221A80BB793D4A13443A4A5360FFF770FD0346FB715FE0364B5B78DBB20A2B10D00B2B3DD0092B00D05CE000F0F1F8314B40
:402740001B889BB2002B50D0FFF7D8FD0346FB714BE0BB79012B4AD8294B9B78DBB2002B45D1BB79264AD278D1B2274AD154BB79254AD35CDAB2BB792549CB5CDBB29A4205
:4027800004D2BB79224A0021D1540CE0BB79204AD35CDBB2012B06D9BB79BA791A498A5CD1B21B4AD154FFF747FE0346FB711EE0BB79012B1DD8124B9B78DBB2012B18D8F3
:4027C000BB790F4A9278D1B2104AD154FFF734FE0346FB710DE000BF0CE000BF0AE000BF08E000BF06E000BF04E000BF02E000BF00E000BFFB7918460837BD4680BD00BF24
:4028000000600040B0C1FF1F48C2FF1F40C2FF1F44C2FF1F80B584B000AF194B1B78DBB2013BDBB2184600F041FFF860154B1B79FB72FB7A0233DB00FA681344FB60FB6855
:402840005B68FB60FB7A104AD35CDBB2DB00FA681344FB60FB685B68FB60FB682033FB60FB685B687B607B681B78DBB29AB2074B1A80064A7B68536000BF1037BD4680BDC6
:40288000C7C1FF1F0060004038C2FF1FB0C1FF1F80B584B000AF1E4B1B78DBB2013BDBB2184600F003FFF8601A4B1B79FB72FB7A0233DB00FA681344FB60FB685B68FB6099
:4028C000FB7A154AD35CDBB2DB00FA681344FB60FB685B68FB60FB681833FB60FB685B687B607B6801331B78DBB29BB21B029AB27B681B78DBB29BB213439AB2074B1A8003
:402900007B680233054A536000BF1037BD4680BDC7C1FF1F0060004038C2FF1FB0C1FF1F80B584B000AF2D4B00221A802C4B1B78DBB2013BDBB2184600F0B8FEF860294BCE
:40294000DB78FB72274B1B79BB72BB7A0233DB00FA681344FB60FB685B68FB60BB7A012B38D8BB7A204AD35CDBB2DB00FA681344FB60FB685B68FB60FB7A002B2AD0FB7A3F
:40298000032B27D8FB7A03F10053013BDB00FA681344FB60134B9B78FB72FB681B78FA7A9A4217D8FB685B687B60FA7A13465B0013449B001A467B6813447B607B685B68BA
:4029C000064A53607B681A88044B1A807B689B68024A936000BF1037BD4680BDB0C1FF1FC7C1FF1F0060004038C2FF1F80B500AF01F0C4FB00BF80BD80B586B000AF002341
:402A0000FB759D4B1B78FB7100233B619B4B00221A8097F90730002B80F20481964B5B78DBB20A2B00F21B8201A252F823F000BF7B2B00005F2E00005F2E00005F2E0000E4
:402A40005F2E00005F2E00005D2A00005F2E0000EF2B00005F2E0000052C0000864BDB78DBB2012B0ED100F049FEB860BB685B68824A5360814B12221A80FFF7C1FB03464B
:402A8000FB75EEE17C4BDB78DBB2022B25D17A4B9B78DBB2184600F009FEB860BB68002B00F0DF81BB685B68744A5360734B5B6803331B78DBB29BB21B029AB26F4B5B683C
:402AC00002331B78DBB29BB213439AB26B4B1A80FFF796FB0346FB75C3E1674BDB78DBB2032B45D10023FB73654B3B6109E03B691B78BB71BB793A6913443B61FB7B0133EB
:402B0000FB735D4B9B78DBB2FA7B9A4204D23B691B78DBB2002BEAD1574B9B78DBB2EE2B01D1584B3B61544B9B78DBB2002B0BD0514B9B78DAB2544B1B7C9A4204D15348A0
:402B400000F0ACF9514B3B613B691B78DBB2002B00F087813B691B78DBB29AB2474B1A80464A3B695360FFF74BFB0346FB7578E101F020FF0346FB7573E1FB7903F00303A6
:402B8000002B20D0022B00D030E03C4B02221A80394B1B79DBB203F07F023D4913465B0013449B000B4402331B78DAB2394B1A70384B00225A70314B364A5A60FFF720FB7C
:402BC0000346FB7512E02D4B02221A80324B1B78DAB2304B1A702F4B00225A70274B2D4A5A60FFF70DFB0346FB7500BF40E1234B01221A80214B294A5A60FFF701FB0346B4
:402C0000FB7535E11D4B01221A801B4B1B79DBB21A46234B1344194A5360FFF7F1FA0346FB7525E1144B5B78DBB2013B0A2B00F21A8101A252F823F0432D0000672E0000C5
:402C4000D12D0000672E0000652C0000672E0000672E0000672E0000A92C0000672E0000FF2C0000044B9B78DAB20E4B1A70FFF7E3FB0346FB75FBE000600040B0C1FF1F74
:402C8000F45A0000345C00009C5A000060C2FF1FCCC1FF1F80C1FF1FC9C1FF1FC7C1FF1F38C2FF1FC6C1FF1F744B9B787B717B79002B06D07B79013BDBB2184600F0F6FC3B
:402CC000B8607B79002B02D0BB68002B03D17B79002B40F0CA806A4B1B78DBB27A799A4208D0674A7B791370664B01221A70012000F0DCF9FFF7A0FB0346FB75B5E000F059
:402D000055FE0346002B00F0B2805C4B1B793B715A4B1B79DAB25C4B1A703B795B4AD35CDAB23B795A49CB5CDBB29A4204D0554B01221A7000F08CFBFFF77EFB0346FB7512
:402D400095E0FB7903F00303012B20D0012B0CD3022B00D03BE0494B9B78DBB2002B31D100F078FD0346FB752CE0444B9B78DBB2012B29D1474B1B78DBB223F00203DAB2FC
:402D8000444B1A70FFF758FB0346FB751CE03B4B1B79DBB2012B19D8384B9B78DBB2DB43DBB2364A1279D2B2114610463A4A125CD2B21340DAB2384B5A54FFF73DFB034631
:402DC000FB7503E000BF53E000BF51E000BF4FE0FB7903F00303012B20D0012B0CD3022B00D03BE0254B9B78DBB2002B31D100F0BDFC0346FB752CE0204B9B78DBB2012B22
:402E000029D1244B1B78DBB243F00203DAB2214B1A70FFF711FB0346FB751CE0174B1B79DBB2012B19D8154B9B78DBB2DB43DBB2124A1279D2B211461046174A125CD2B2E2
:402E40001340DAB2144B5A54FFF7F6FA0346FB7503E000BF0CE000BF0AE000BF08E000BF06E000BF04E000BF02E000BF00E000BFFB7D18461837BD4680BD00BF00600040DE
:402E8000C7C1FF1FC4C1FF1FBCC1FF1FACC1FF1F38C2FF1FC9C1FF1F3CC2FF1FB0B58AB000AF7860324B07F114041D460FCD0FC42B682370002387F826307B68002B52D0B4
:402EC0007B6822221A707B68013303221A7007F10C03184601F0F0F9022387F827303EE097F827307A68134497F8262007F128010A4412F81C2C1209D2B207F128010A4440
:402F000012F8142C1A7097F8273001337A68134400221A7097F8273002337A68134497F8262007F128010A4412F81C2C02F00F0207F128010A4412F8142C1A7097F82730A8
:402F400003337A68134400221A7097F82630013387F8263097F82730043387F8273097F82730212BBCD900BF2837BD46B0BD00BF885A000090B482B000AF0123FB7180E04A
:402F8000464AFB791B0113440C221A70FA79444913465B0013449B000B4405331B78DBB2002B1CD0FA793E4913465B0013449B000B4404331B78DBB25BB2002B07DA394A9C
:402FC000FB791B01134402330C221A700EE0354AFB791B011344023308221A7006E0314AFB791B011344023380221A702B48F979FA792B4C13465B0013449B002344063302
:403000001B889BB2DAB20B01034406331A702348F979FA79224C13465B0013449B00234406331B889BB21B0A9BB2DAB20B01034407331A701948F979FA79194C13465B0096
:4030400013449B00234406331B889BB2DAB20B01034404331A701148F979FA79104C13465B0013449B00234406331B889BB21B0A9BB2DAB20B01034405331A70FB790133A3
:40308000FB71FB79082B7FF67BAF074BFF221A7000BF0837BD4690BC704700BF70600040CCC1FF1FFC5F00400A60004080B58AB000AF0346FB7100237B84002387F82730B0
:4030C00050E097F82720B34913465B0013449B000B4400221A7097F82720AE4913465B0013449B000B44023300221A7097F82720A84913465B0013449B000B440333002276
:403100001A7097F82720A34913465B0013449B000B44083300221A8097F827209D4913465B0013449B000B440A3300221A7097F82720984913465B0013449B000B440133DD
:4031400000221A7097F82720924913465B0013449B000B44053300221A7097F82730013387F8273097F82730082BAAD9FB79002B16D0002387F825300EE097F82530864A6F
:403180000021D15497F82530844A0021D15497F82530013387F8253097F82530012BECD97F4B1B78DBB2002B00F04A810023FB767B4B1B78DBB2013BDBB2184600F076FA3F
:4031C00078617B695B683B613B6907331B7803F04003002B08D0734B1B78DBB243F00103DAB2704B1A7007E06E4B1B78DBB223F00103DAB26B4B1A707B6908337B617B69A1
:403200001B7887F82730012387F82530B6E07B695B68FB61002387F82630A3E097F82520FB699B7803F07F039A4240F0938097F82520584913465B0013449B000B44083395
:403240001B889AB2FB699B889A420CD297F82520FB6998884F4913465B0013449B000B44083302461A80FB691B781A464A4B9B5CDAB2FB695B789A426CD197F82520FB6925
:403280009878444913465B0013449B000B44043302461A7097F82520FB69D8783D4913465B0013449B000B4402461A70FB69DB7803F00303FB73FB699B785BB2002B1CDADB
:4032C00097F82520FB7B012B01D1072000E00D20304913465B0013449B000B44053302461A7097F825202B4913465B0013449B000B44013301221A701BE097F82520FB7B77
:40330000012B01D1052000E00920224913465B0013449B000B44053302461A7097F825201C4913465B0013449B000B44013300221A70FB699B790A2B03D0FB699B79022BC4
:4033400008D1FA7E97F825301946F869FEF796FD0346FB76FB690833FB6197F82630013387F8263097F8262097F827309A42FFF455AF97F82530013387F8253097F82530CF
:40338000082B7FF644AF7B695B68FB61002387F8253020E0CCC1FF1F38C2FF1FACC1FF1FC7C1FF1FC9C1FF1FFB699B7803F07F02FB691878244913465B0013449B000B449B
:4033C0000A3302461A70FB690833FB6197F82530013387F8253097F8252097F827309A42E2D300F09DF90246184B1A6000237B84012387F827301DE097F82720124913463E
:403400005B0013449B000B4406337A8C1A8097F827200D4913465B0013449B000B4408331B889AB27B8C13447B8497F82730013387F8273097F82730082BDDD9FFF79AFD23
:4034400000BF2837BD4680BDCCC1FF1FC0C1FF1F90B585B000AF8F4B1B78DBB2002B00F015818C4B1B78DBB2013BDBB2184600F01DF978607B6808337B607B681B78FB70FA
:403480007B685B68BB60844B1B78BB700023FB73F7E0BB681B78BA789A4240F0EC80BB787E4AD35CDAB2BB685B789A4240F0E380BB689B7803F07F037B70BB68DB7803F0DC
:4034C00003033B707A78764913465B0013449B000B44033300221A707A78BB689878704913465B0013449B000B44043302461A707A78BB68D8786A4913465B0013449B00F9
:403500000B4402461A707A78BB689888644913465B0013449B000B44083302461A80BB689B785BB2002B1ADA7A783B78012B01D1072000E00D205A4913465B0013449B00F4
:403540000B44053302461A707A78554913465B0013449B000B44013301221A7019E07A783B78012B01D1052000E009204C4913465B0013449B000B44053302461A707A783C
:40358000474913465B0013449B000B44013300221A70444A7B781B011344023301221A70404879787A783E4C13465B0013449B00234408331B889BB21B0A9BB2DAB20B0199
:4035C00003441A70374879787A78354C13465B0013449B00234408331B889BB2DAB20B01034401331A70304879787A782C4C13465B0013449B00234406331B889BB2DAB2AD
:403600000B01034406331A70274879787A78244C13465B0013449B00234406331B889BB21B0A9BB2DAB20B01034407331A701E4879787A781A4C13465B0013449B002344AB
:4036400006331B889BB2DAB20B01034404331A70154879787A78124C13465B0013449B00234406331B889BB21B0A9BB2DAB20B01034405331A70BB680833BB60FB7B013377
:40368000FB73FA7BFB789A42FFF403AF00BF1437BD4690BDC7C1FF1FBCC1FF1F38C2FF1FCCC1FF1FFC5F00407060004080B485B000AF0346FB710F4B1B78DBB20E4ADB00B0
:4036C00013445B68FB60FB681033FB60FB681B78FA799A4202D30023FB6005E0FB79DB00FA6813445B68FB60FB6818461437BD4680BC7047A5C1FF1F2C5C000080B400AFC0
:40370000054B1B78DBB2054ADB0013445B681846BD4680BC704700BFA5C1FF1F2C5C000080B584B000AF104B1B78DBB2013BDBB21846FFF7BBFFB860BB68002B0DD0BB68E6
:403740005B681B79FB71FB790233DB00BA681344BB60BB685B68FB6001E00023FB60FB6818461037BD4680BDC7C1FF1F80B582B000AF0023FB71344B1B79DBB203F07F0326
:40378000BB71BB79002B5AD0BB79082B57D8BA79B9792E480B465B000B449B00034402331B78DBB243F00103D8B2284913465B0013449B000B44023302461A70BA792349E4
:4037C00013465B0013449B000B44033300221A70BA79B9791D480B465B000B449B00034401331B78DBB243F00203D8B2174913465B0013449B000B44013302461A70BA79A7
:40380000124913465B0013449B000B4404331B78DBB25BB2002B07DA0D4ABB791B01134402338D221A7006E0094ABB791B011344023389221A70FEF7FFFD0346FB71FB79F8
:4038400018460837BD4680BD00600040CCC1FF1FFC5F004080B582B000AF0023FB71504B1B79DBB203F07F03BB71BB79002B00F09280BB79082B00F28E80BA79B9794948C5
:403880000B465B000B449B00034402331B78DBB223F00103D8B2434913465B0013449B000B44023302461A70BA793E4913465B0013449B000B44033300221A703A49BB7965
:4038C0003948BA79120102441278D2B202F07F02D2B21B010B441A70BA79B97931480B465B000B449B00034401331B78DBB223F00203D8B22B4913465B0013449B000B44A7
:40390000013302461A70BA79264913465B0013449B000B4404331B78DBB25BB2002B1BDABA79204913465B0013449B000B4401331B78DBB2012B07D11B4ABB791B01134471
:4039400002330C221A7022E0174ABB791B01134402330D221A701AE0BA79124913465B0013449B000B4401331B78DBB2012B07D10D4ABB791B011344023308221A7006E0C0
:40398000094ABB791B011344023309221A70FEF753FD0346FB71FB7918460837BD4680BD00600040CCC1FF1FFC5F004080B584B000AF0023FB73154B1B79BB73144B1B7835
:4039C000DBB2013BDBB21846FFF770FEB860BB685B681B79FB71BA7BFB799A4202D9BB7B022B0ED8BB7BBA7B0A498A5CD1B20A4AD154BB7B054A9278D1B2064AD1540123BD
:403A0000FB73FB7B18461037BD4680BD00600040C7C1FF1F38C2FF1FACC1FF1F80B582B000AF0023FB710F4B1B78DBB25BB2002B12DA0C4B5B78DBB2012B00D00CE00A4B9D
:403A40000A4A5A60094B1B789AB2074B1A80FEF7D7FB0346FB7100BFFB7918460837BD4680BD00BF00600040B0C1FF1F485C000080B500AF144B02221A70144B81221A707E
:403A8000134B08221A70134B28221A70124B00221A70124B4FF400421A6007210F2000F0E7FB0F490F2000F0BBFB0E4B10221A700D4B00221A700D4B00221A700C4B002271
:403AC0001A7000BF80BD00BFD6490040C8490040CA490040DB490040DC49004080E100E06D3B00004AC2FF1F4CC2FF1F5BC2FF1F5AC2FF1F80B582B000AF00F050FF034663
:403B0000FB710C4A0B4B1B78DBB243F00403DBB21370094A084B1B78DBB243F00403DBB21370FB79184600F03EFF00BF0837BD4680BD00BFA5430040B543004080B500AFB3
:403B4000084B1B78002B04D1FFF792FF054B01221A70FFF7CFFF044B4FF400421A6000BF80BD00BF82C1FF1F00E100E080B582B000AFA74B1B78FB71A64B1B78DBB203F0E1
:403B80004003DBB2002B00F0A981FB7903F00103002B00F080819F4B1B78DBB2453B052B00F2758101A252F823F000BFC53B0000EB3C00008F3E00008F3E0000C53B000047
:403BC000D73D0000FB7923F02003FB71FB7903F00A03DBB2082B46D18E4B1B78DBB2452B3AD18D4B1B78DBB2002B0FD08B4A8C4B1B681B78DBB21370854B04221A70894BB4
:403C000001221A70834B46221A7044E1864B1B78DBB203F00203002B0FD0844B1B78DBB243F00A03DAB2814B1A707A4B60221A707F4B4FF400421A602DE17E4A7D4B1B7823
:403C4000DBB243F01003DBB213707B4B10221A706F4B04221A701EE16D4B00221A706D4B4A221A7017E1FB7903F00A03DBB20A2B37D16E4B1B78DBB263F05F03DAB26B4B5E
:403C80001A70694B1B78DBB203F00203002B19D0604B1B78DBB203F00803002B01D0092300E00A23DAB2614B1B78DBB21343DAB25E4B1A70574B60221A705D4B4FF4004254
:403CC0001A60E8E05B4A5B4B1B78DBB243F01003DBB21370584B10221A704D4B04221A70D9E0002000F05AFAD5E0FB7903F00203002B42D14B4B1B78DAB2474B1B78DBB237
:403D00009A4214D2454A464B1B6846490978C9B20B441B78DBB213703D4B04221A70414B1B78DBB20133DAB23E4B1A70B3E03E4B1B78DBB203F00203002B0FD03B4B1B7893
:403D4000DBB243F00A03DAB2384B1A70314B60221A70374B4FF400421A609CE0354A354B1B78DBB243F01003DBB21370324B10221A70274B04221A708DE02B4B1B78DBB285
:403D800003F00203002B0FD0284B1B78DBB263F06503DAB2254B1A701E4B60221A70244B4FF400421A6076E0224A224B1B78DBB243F01003DBB213701F4B10221A70144B20
:403DC00004221A70194B1B78DBB263F06F03DAB2164B1A705FE0194B1B68194A1278D2B213440E4A1278D2B21A70154B1B78DBB20133DAB2124B1A70114B1B78DAB2114B77
:403E00001B78DBB29A421FD2014B10221A7042E0D74900404AC2FF1F5CC2FF1FD849004050C2FF1F5AC2FF1F59C2FF1F4CC2FF1F80E100E0D6490040D949004054C2FF1F3F
:403E40005BC2FF1F58C2FF1F2C4B1B78DBB203F00203002B0FD02A4B1B78DBB243F00903DAB2274B1A70274B60221A70264B4FF400421A600FE0254A244B1B78DBB243F0CC
:403E80001003DBB21370224B00221A7003E0002000F084F900BFFB7903F02003002B28D0184B1B78DBB203F00803002B01D0012300E00223DAB2124B1B78DBB21343DAB259
:403EC0000F4B1A70114A114B1B78DBB223F01003DBB213700B4B10221A700AE0094B1B78DBB203F01003DBB2002B02D1054B10221A7000BF0837BD4680BD00BF59C2FF1F8E
:403F00004CC2FF1F4AC2FF1F80E100E0D6490040D749004080B485B000AF396011461A460346FB710B46BB7113467B710223FB733B68002B56D02E4B1B78DBB2102B0CD114
:403F40002C4B1B78DBB203F00803002B02D10023FB7315E00123FB7312E0254B1B78DBB2602B0DD10023FB73234B4FF400421A60224B1B78DBB223F00803DAB21F4B1A7082
:403F8000FB7B002B2ED11A4B45221A701C4B00221A701C4ABB7913701B4A3B6813601B4A7B791370154B1B78DBB223F00203DAB2124B1A70164AFB795B00DBB213707B7946
:403FC00003F00103002B06D00A4B12221A70114B04221A7002E0074B01221A700E4B4FF400421A60FB7B18461437BD4680BC70474AC2FF1FD949004080E200E04CC2FF1F62
:404000005AC2FF1F5CC2FF1F50C2FF1F59C2FF1FD8490040D749004000E100E080B485B000AF396011461A460346FB710B46BB7113467B710223FB733B68002B59D0304B3B
:404040001B78DBB2102B0CD12E4B1B78DBB203F00803002B02D10023FB7315E00123FB7312E0274B1B78DBB2602B0DD10023FB73254B4FF400421A60244B1B78DBB223F0CC
:404080000803DAB2214B1A70FB7B002B31D11C4B49221A701E4B00221A701E4ABB7913701D4A3B6813601D4A7B791370174B1B78DBB223F00103DAB2144B1A70184AFB7901
:4040C0005B00DBB243F00103DBB213707B7903F00103002B06D00B4B12221A70114B04221A7002E0074B01221A700F4B4FF400421A60FB7B18461437BD4680BC704700BF77
:404100004AC2FF1FD949004080E200E04CC2FF1F5BC2FF1F58C2FF1F54C2FF1F59C2FF1FD8490040D749004000E100E080B483B000AF0E4B4FF400421A600D4B1B78FB715E
:404140000C4B1B78DBB203F04003DBB2002B03D0FB7943F00403FB71074B4FF400421A60FB7918460C37BD4680BC704780E100E04CC2FF1F4AC2FF1F00E100E080B400AF56
:40418000054B1B78DBB203F040039B09DBB21846BD4680BC704700BF8F45004080B483B000AF0346FB7101BE00BF0C37BD4680BC704700BF80B582B000AF786008E00C4B93
:4041C0001B68184600F0CCFB7B68A3F500437B607B68B3F5004FF2D8064B1B687A6802FB03F3184600F0BCFB00BF0837BD4680BDF8C0FF1FF0C0FF1F80B582B000AF0346FB
:40420000FB80FB88054A127802FB03F3184600F0A7FB00BF0837BD4680BD00BFF4C0FF1F80B584B000AF03463960FB710F4B1B68FB60FB791F2B02D90020FFF7AFFFFB7986
:4042400003F01F0310339B00FA6813441B68BB60FB7903F01F0310339B00FA6813443A681A60BB6818461037BD4680BD08ED00E080B582B000AF03460A46FB711346BB713B
:40428000BB79072B02D90020FFF788FFFB791F2B02D90020FFF782FFFB7903F01F0303F1604303F56443BA795201D2B21A7000BF0837BD4680BD00BF80B483B000AF7860B2
:4042C000264B1B78DBB21A467B681A60244B1B78DBB21B027A6812681A437B681A60214B1B78DBB21B047A6812681A437B681A601D4B1B78DBB21B067A6812681A437B68A8
:404300001A607B680433194A1278D2B21A60184B1B78DBB21A027B6804337968043109680A431A60134B1B78DBB21A047B6804337968043109680A431A600F4B1B78DBB279
:404340001A067B6804337968043109680A431A6000BF0C37BD4680BC704700BF0301004904010049EC460040020100490101004900010049050100490601004980B485B008
:4043800000AF0346FB710A4B1B78DBB223F00103FB730749FB7903F00103DAB2FB7B1343DBB20B7000BF1437BD4680BC704700BFC051004080B485B000AF0346FB710B4B51
:4043C0001B78DBB223F04003FB730849FB799B01DBB203F04003DAB2FB7B1343DBB20B7000BF1437BD4680BC704700BF2051004080B485B000AF0346FB710B4B1B78DBB2A2
:4044000023F02003FB730849FB795B01DBB203F02003DAB2FB7B1343DBB20B7000BF1437BD4680BC704700BF2051004080B485B000AF0346FB71094B1B78DBB203F07F038E
:40444000FB730649FB79DB01DAB2FB7B1343DBB20B7000BF1437BD4680BC70472051004080B485B000AF0346FB710B4B1B78DBB223F01003FB730849FB791B01DBB203F0E6
:404480001003DAB2FB7B1343DBB20B7000BF1437BD4680BC704700BF2051004080B485B000AF0346FB710B4B1B78DBB223F00203FB730849FB795B00DBB203F00203DAB21F
:4044C000FB7B1343DBB20B7000BF1437BD4680BC704700BFC051004080B485B000AF0346FB71094B1B78DBB203F07F03FB730649FB79DB01DAB2FB7B1343DBB20B7000BFF6
:404500001437BD4680BC7047C051004080B485B000AF0346FB710B4B1B78DBB223F04003FB730849FB799B01DBB203F04003DAB2FB7B1343DBB20B7000BF1437BD4680BC15
:40454000704700BF5051004080B485B000AF0346FB710B4B1B78DBB223F00803FB730849FB79DB00DBB203F00803DAB2FB7B1343DBB20B7000BF1437BD4680BC704700BFCB
:404580002051004080B485B000AF0346FB710B4B1B78DBB223F00403FB730849FB799B00DBB203F00403DAB2FB7B1343DBB20B7000BF1437BD4680BC704700BF20510040C8
:4045C00080B485B000AF0346FB710B4B1B78DBB223F00203FB730849FB795B00DBB203F00203DAB2FB7B1343DBB20B7000BF1437BD4680BC704700BF2051004080B485B014
:4046000000AF0346FB710A4B1B78DBB223F00103FB730749FB7903F00103DAB2FB7B1343DBB20B7000BF1437BD4680BC704700BF2051004080B485B000AF0346FB71094B70
:404640001B78DBB203F07F03FB730649FB79DB01DAB2FB7B1343DBB20B7000BF1437BD4680BC70471051004080B485B000AF0346FB710B4B1B78DBB223F04003FB7308493F
:40468000FB799B01DBB203F04003DAB2FB7B1343DBB20B7000BF1437BD4680BC704700BF1051004080B485B000AF0346FB710B4B1B78DBB223F02003FB730849FB795B015F
:4046C000DBB203F02003DAB2FB7B1343DBB20B7000BF1437BD4680BC704700BF1051004080B485B000AF0346FB710B4B1B78DBB223F01003FB730849FB791B01DBB203F01F
:404700001003DAB2FB7B1343DBB20B7000BF1437BD4680BC704700BF1051004080B485B000AF0346FB710B4B1B78DBB223F00803FB730849FB79DB00DBB203F00803DAB220
:40474000FB7B1343DBB20B7000BF1437BD4680BC704700BF1051004080B485B000AF0346FB710B4B1B78DBB223F00403FB730849FB799B00DBB203F00403DAB2FB7B1343FB
:40478000DBB20B7000BF1437BD4680BC704700BF1051004080B485B000AF0346FB71094B1B78DBB203F07F03FB730649FB79DB01DAB2FB7B1343DBB20B7000BF1437BD4661
:4047C00080BC70475051004080B485B000AF0346FB710B4B1B78DBB223F04003FB730849FB799B01DBB203F04003DAB2FB7B1343DBB20B7000BF1437BD4680BC704700BF9B
:40480000C051004080B485B000AF0346FB710B4B1B78DBB223F02003FB730849FB795B01DBB203F02003DAB2FB7B1343DBB20B7000BF1437BD4680BC704700BF505100407C
:4048400080B485B000AF0346FB710A4B1B78DBB223F00103FB730749FB7903F00103DAB2FB7B1343DBB20B7000BF1437BD4680BC704700BF5051004080B485B000AF034655
:40488000FB710B4B1B78DBB223F04003FB730849FB799B01DBB203F04003DAB2FB7B1343DBB20B7000BF1437BD4680BC704700BF6051004080B485B000AF0346FB71094BFD
:4048C0001B78DBB203F07F03FB730649FB79DB01DAB2FB7B1343DBB20B7000BF1437BD4680BC70476051004080B485B000AF0346FB710B4B1B78DBB223F01003FB7308499D
:40490000FB791B01DBB203F01003DAB2FB7B1343DBB20B7000BF1437BD4680BC704700BF6051004080B485B000AF0346FB710B4B1B78DBB223F02003FB730849FB795B013C
:40494000DBB203F02003DAB2FB7B1343DBB20B7000BF1437BD4680BC704700BF60510040142816D902B4012114381049097811F0C001890904B40E4A515C04BC00BF00BF0C
:4049800000BF8841FDD500BF00BF02BC704700BF00BF70F10400FCD570470B050709EFF3108072B6704780F310887047004800409A49000080B582B000AF0023BB711F4BD2
:4049C0001B78DBB203F00303012B02D0022B04D012E01A4B1B79FB7111E0184B1B79DBB203F07F02164913465B0013449B000B440A331B78FB7102E00023FB7100BFFB792B
:404A0000022B15D80F4B1A68FB7913441B78022B06D0032B09D1FDF70BFE0346BB7107E0FDF7B6F80346BB7102E00023BB7100BFBB7918460837BD4680BD00BF0060004047
:404A4000CCC1FF1FC0C1FF1F014B1868704700BF5CC1FF1F0E4B70B51E460E4C0025E41AA410A54204D056F8253098470135F8E701F01AF9084B094C1E46E41AA410002523
:404A8000A54204D056F8253098470135F8E770BDB45C0000B45C0000B45C0000BC5C000010B5431E0A44914204D011F8014B03F8014FF8E710BD03460244934202D003F897
:404AC000011BFAE7704700000EB400B54FF402719CB0ADF814106FF00041049107914FF6FF711DAB02900690084853F8042BADF81610006802A9019300F07AF8029B0022F1
:404B00001A701CB05DF804EB03B070475CC1FF1F024610B513461C780132002CFAD1013B11F8012B03F8012F002AF9D110BD034613F8012B002AFBD1181A013870472DE907
:404B4000F0478E6882469E420C46914698463ED88A8912F4906F3AD02568096902236F1A656905EB450595FBF3F57B1C43449D4238BF1D4653050FD5294600F03FFB06467C
:404B800098B13A462169FFF78BFFA38923F4906343F08003A38113E02A4600F08DFB064670B92169504600F0DDFA0C23CAF80030A3894FF0FF3043F04003A381BDE8F0876A
:404BC00026613E44266046466561ED1BA560464528BF464649463246206800F0A7FAA36800209B1BA36023681E442660BDE8F0872DE9F04F9DB003938B8980461C060D46AF
:404C000016460DD50B695BB9402100F0F7FA2860286118B90C23C8F80030CDE040236B610023099320238DF82930DFF89CB130238DF82A3037463C4614F8013B1BB9B7EB9C
:404C4000060910D003E0252BF9D02746F3E74B46324629464046FFF772FF013000F0A780099B4B4409933B78002B00F0A08000234FF0FF3204930793059206938DF853309C
:404C80001A930126052221784E4800F041FA671C049B38B14B4A3C46801A06FA00F018430490EFE7D90644BF20228DF853201A0744BF2B228DF8532022782A2A03D0079A47
:404CC00000210A200BE0039A111D12680391002A10DA524243F00200079204900BE027463B780134303B092B03D800FB02320121F5E701B107923B782E2B1ED17B782A2B26
:404D00000AD1039B02371A1D1B680392002BB8BF4FF0FF33059310E0002319460593781C0A2407463A780130303A092A03D804FB01210123F5E703B10591032239782248A8
:404D400000F0E6F940B14023CBEB000003FA00F0049B013718430490397806221B487E1C8DF8281000F0D4F988B1194B33B9039B073323F007030833039314E003AB0093D3
:404D80002A46144B04A94046AFF3008007E003AB00932A460F4B04A9404600F093F8B0F1FF3F824603D0099B5344099342E7AB895B0601D4099801E04FF0FF301DB0BDE8E9
:404DC000F08F00BF725C0000785C00007C5C0000000000003F4B00002DE9F04791461F460A698B6806469342B8BF1346C9F8003091F843200C46DDF8208012B10133C9F835
:404E000000302368990642BFD9F800300233C9F80030256815F0060510D104F1190A07E00123524639463046C04701301AD00135E368D9F800209B1A9D42F1DB94F84330CF
:404E40002268003318BF012392060FD5E118302081F843005A1C94F845102244023382F8431003E04FF0FF30BDE8F08704F1430239463046C0470130F4D02268D9F80050F7
:404E8000E36802F00602042A08BF5D1B2269A3680CBF25EAE57500259342C4BF9B1AED184FF000091A344D4509D00123224639463046C0470130D5D009F10109F3E70020E2
:404EC000BDE8F0872DE9F04317460A7E85B06E2A984606460C460C9B01F1430E00F0AE8011D8632A22D009D8002A00F0BB80582A40F0CA8081F84520834955E0642A1ED022
:404F0000692A1CD0C0E0732A00F0B08009D86F2A2ED0702A40F0B8800A6842F020020A603EE0752A24D0782A3AD0ADE01A6801F14205111D1960136884F84230A8E0216825
:404F40001A6811F0800F02D0111D196008E011F0400F02F10401196002D0B2F9003000E01368002B3CDA2D225B4284F8432037E021681A6811F0800F02D0111D196007E0D7
:404F800011F0400F02F10401196001D0138800E01368227E5C496F2A14BF0A2208221BE078225A4984F845202268186812F0800F00F104051D6003D1550601D5038800E0C7
:404FC0000368D00744BF42F0200222601BB9226822F0200222601022002084F8430001E049490A226568002DA56008DB206820F0040020602BB9002D7DD175460CE0002BA3
:4050000079D07546B3FBF2F002FB1033CB5C05F8013D03460028F5D1082A0BD12368DA0708D5236962689A42DEBF302305F8013C05F1FF35C5EB0E0323612EE008681A68E1
:4050400010F0800F496903D0101D1860136808E010F0400F02F104001860136801D0198000E0196000232361754616E01A68111D1960156800216268284600F049F808B1D7
:40508000401B6060636804E004F1420584F8422001232361002384F84330CDF800803B4603AA21463046FFF797FE013002D14FF0FF3026E023692A4639463046C0470130D6
:4050C000F5D023689B0710D5002504F1190907E001234A4639463046C0470130E7D00135E368039A9B1A9D42F2DBE068039B9842B8BF184605E00B7804F1420584F8423078
:405100008AE705B0BDE8F083835C0000945C000010B5C9B202449042034605D01C7801308C42F8D1184610BD002010BD884210B501EB020301D8421E0BE09842FBD2811894
:40514000D21AD34204D013F8014D01F8014DF8E710BD994204D011F8014B02F8014FF8E710BD000038B50546002944D051F8043C0C1F002BB8BFE41800F0D4F81E4A1368AE
:40518000114613B96360146030E0A3420DD92268A018834201BF18685B681218226063600C6023E0A24203D813465A68002AF9D118681918A1420BD1216801445818824292
:4051C000196013D110685268014419605A600DE002D90C232B6009E021686018824201BF106852680918216062605C602846BDE8384000F098B838BD88C1FF1F70B5CD1C31
:4052000025F0030508350C2D38BF0C25002D064601DBA94202D90C23336046E000F082F8234B1C681A462146A1B10B685B1B0ED40B2B03D90B60CC18CD501EE08C420BBF5C
:4052400063684B681360636018BF0C4615E00C464968E9E7174C23681BB9304600F052F820602946304600F04DF8431C18D0C41C24F00304A0420DD12560304600F053F845
:4052800004F10B00231D20F00700C31A0ED05A42E25070BD211A304600F034F80130EBD10C233360304600F03EF8002070BD00BF88C1FF1F84C1FF1FF8B5074615460E464A
:4052C00021B91146BDE8F840FFF798BF1AB9FFF749FF2846F8BD00F027F885420ED929463846FFF78BFF044650B131462A46FFF7D7FB31463846FFF735FF01E03046F8BDD0
:405300002046F8BD38B5064C0023054608462360FCF75CF8431C02D1236803B12B6038BD84C2FF1F7047704751F8040C0028BEBF091851F8043CC018043870470000000057
:40534000526561642066726F6D2074686520454550524F4D0A0D00004D7573742066697273742073656C656374206361726420747970650A0D000000577269746520746F2B
:405380002074686520454550524F4D2E2E2E0000436F6D706C6574656420454550524F4D2077726974650A0D00000000454550524F4D207772697465206661696C6564207B
:4053C00028646F657320746869732063617264206861766520616E20454550524F4D3F0A0D000000426C696E6B696E6720746865204C454473206F6E2074686520526173BC
:4054000050492D504C55532D4756532D43464720636172642C20706C6561736520776169740A0D00436F6D706C6574656420626C696E6B696E6720746865204C45447320E8
:405440006F6E207468652052617350492D504C55532D4756532D43464720636172640A0D00000000426C696E6B696E6720746865204C454473206F6E207468652052415358
:4054800050492D504C55532D47565320636172642C20706C6561736520776169740A0D00436F6D706C6574656420626C696E6B696E6720746865204C454473206F6E2074F4
:4054C00068652052415350492D504C55532D47565320636172640A0D00000000426C696E6B696E6720746865204C454473206F6E207468652052415350492D47565320634D
:405500006172642C20706C6561736520776169740A0D0000436F6D706C6574656420626C696E6B696E6720746865204C454473206F6E207468652052415350492D47565394
:4055400020636172640A0D00426C696E6B696E6720746865204C454473206F6E20746865205250502D55494F2D313620636172642C20706C6561736520776169740A0D00D9
:40558000436F6D706C6574656420626C696E6B696E6720746865204C454473206F6E20746865205250502D55494F2D313620636172640A0D0000000043617264206E6F743D
:4055C0002079657420696D706C656D656E7465640A0D000053656C6563746564205250502D55494F2D313620636172640A0D000053656C656374656420525050534F432074
:40560000636172640A0D000053656C65637465642052415350492D504C55532D4756532D43464720636172640A0D000053656C6563746564205241535049475653206361F9
:4056400072640A0D0000000053656C65637465642052415350492D504C55532D47565320636172640A0D00000A0D4C616E6420426F617264732C204C4C43202D2052506966
:40568000204361726420546573742053746174696F6E0A0D0000000031202D2053656C656374205250502D55494F2D313620436172640A0D0000000032202D2053656C65E0
:4056C000637420525050534F4320436172640A0D0000000033202D2053656C6563742052415350492D504C55532D4756532D43464720436172640A0D0000000034202D20AF
:4057000053656C6563742052415350492D47565320436172640A0D0035202D2053656C6563742052415350492D504C55532D47565320436172640A0D0000000052202D20FD
:405740005265616420454550524F4D0A0D00000057202D20577269746520454550524F4D0A0D000042202D20426F756E6365204C4544206163726F73732043617264204734
:4057800050494F730A0D00003F202D205072696E742074686973206D656E750A0D00000025303478200000002025303278000000202000000A0D0000522D50690100020028
:4057C0006D0000000100000031000000C0E97339595C8BAF624F1932FE3F2DD5050001000F0A6C616E642D626F617264732E636F6D5250502D55494F2D3136F29F02000184
:405800000020000000000000000000000000000000000000000000000000000000000000000000ED6E000000522D5069010002007500000001000000390000007B276F9959
:4058400072256CBD33463E359FC8A73E040001000F126C616E642D626F617264732E636F6D52415350492D504C55532D4756532D4346477A4302000100200000000000006C
:40588000000000000000000000000000000000000000000000000000000000ED6E000000522D50690100020069000000010000002D0000004B1F090F7FF8178B674A5558C2
:4058C00036E2DE6E060001000F066C616E642D626F617264732E636F6D525050534F43E4740200010020000000000000000000000000000000000000000000000000000022
:4059000000000000000000ED6E00000005001401C8490040190000510040100030510040200000000140001000140140000800400140000A004C014000020050014020008D
:405940000145004005520040010D0140030E0140040F0140021501400217014002190140021B014003400140034101400542014004430140054401400445014002460140F3
:405980000647014007480140034901400B4C01400A4D014002500140025101407E0228102910602061307C40B52056085B045D90584059208840D60CE840EA01EA02EE0AF6
:4059C000EA02EE0AE840EA0133813640CC709F01A640A7803E109F01A640A780CE2096109F01A640A780122014208820C40CE2019820A220B620EA089820A22008080B04C5
:405A00000F409820A220C20E24029610AE40AF81C820EA40EE50AA10B401EA801040132014807A207C209820A220AC08AF44C40EDE03640878407C8098C8AB20B408D801B9
:405A4000DC01DE04E80201010F01002A03C00000300000C3F3003000000000004000000000000000C000000000FFFF000000000000FFFF000000000000F1F100100000007A
:405A800000F0F0000000000030313233343536373839414243444546000000001201000202000008B40432F2010001048001000009024300020101803209040000010202CC
:405AC0000002052400100104240202052406000105240100010705810308000A09040100020A000003070582024000000705030240000000040309042C0343007900700094
:405B000072006500730073002000530065006D00690063006F006E0064007500630074006F0072003803430044004300200043006F006D006D0075006E0069006300610068
:405B4000740069006F006E00200049006E007400650072006600610063006500260343004400430020004400610074006100200049006E00740065007200660061006300E1
:405B8000650010035500530042005500410052005400000002030000320005010902A1010901A1000509190129031500250195037501810295017505810105010930093187
:405BC0001581257F750895028106C0C00000000000008103080002000100820240000A000100030240000A00020A000001000000B05A000003000000D05B0000000000005E
:405C000000000000000000000000000000000000E85B0000010000009C5A0000000000000000000001000000EC5B000001000000145C000012034D005300460054003100F1
:405C40003000300001000000280000000001040001000000000000000001435955534200000030303030310000000000000000004300232D302B2000686C4C006566674578
:405C800046470030313233343536373839414243444546003031323334353637383961626364656600000000F8B500BFF8BC08BC9E4670474D000000B5140000F8B500BF52
:405CC000F8BC08BC9E46704729000000E05C0000C8C0FF1F9800000028010000000000000000000088C2FF1F00C2010000000800C201000000080000A12000000000020004
:405D0000000000000090D00300FA0000400000000000007D0000000000000000000000000000000000000000000000000000000000000000705C000000000000000000007D
:405D400000000000000000000000000000000000000000000000000000000000000000000000000000000000000000000000000000000000FCC0FF1F000000000000000049
:405D800000000000000000000000000000000000000000000000000000000000000000000000000000000000000000000000000000000000000000000000000000000000E3
:405DC00000000000000000000000000000000000000000000000000000000000000000000000000000000000000000000000000000000000000000000000000000000000A3
:405E00000000000000000000000000000000000000000000000000000000000000000000000000000000000000000000000000000000000000000000000000000000000062
:405E40000000000000000000000000000000000000000000000000000000000000000000000000000000000000000000000000000000000000000000000000000000000022
:0200000480007A
:0200000490006A
:0400000000004005B7
:0200000490105A
:04000000BC90ACAF55
:0200000490303A
:020000007C97EB
:0200000490402A
:4000000000000000000000000000000000000000000000000000000000000000000000000000000000000000000000000000000000000000000000000000000000000000C0
:400040000000000000000000000000000000000000000000000000000000000000000000000000000000000000000000000000000000000000000000000000000000000080
:0200000490501A
:0C00000000012E13306900012E36AD0007
:00000001FF