:10000000020E5C008F828E83E0540100000070F8C5
:100010002278FFE4F6D8FD020EF2BB010689828A3F
:1000200083E0225002E722BBFE02E32289828A8318
:10003000E49322BB010689828A83F0225002F722D0
:10004000BBFE01F322BC000BBE0029EF8DF084FF44
:10005000ADF022E4CCF875F008EF2FFFEE33FEECA4
:1000600033FCEE9DEC984005FCEE9DFE0FD5F0E9CB
:10007000E4CEFD22EDF8F5F0EE8420D21CFEADF0CA
:1000800075F008EF2FFFED33FD4007985006D5F0CF
:10009000F222C398FD0FD5F0EA22A3F8E0C5F025BF
:1000A000F0F0E582158270021583E0C838F0E8228E
:1000B000BB010A89828A83F0E5F0A3F0225006F79B
:1000C00009A7F01922BBFE06F3E5F009F31922E8AF
:1000D0008FF0A4CC8BF0A42CFCE98EF0A42CFC8A2D
:1000E000F0EDA42CFCEA8EF0A4CDA8F08BF0A42DAA
:1000F000CC3825F0FDE98FF0A42CCD35F0FCEB8E4B
:10010000F0A4FEA9F0EB8FF0A4CFC5F02ECD39FE00
:10011000E43CFCEAA42DCE35F0FDE43CFC2275F075
:1001200008758200EF2FFFEE33FECD33CDCC33CCFC
:10013000C58233C5829BED9AEC99E58298400CF517
:1001400082EE9BFEED9AFDEC99FC0FD5F0D6E4CE45
:10015000FBE4CDFAE4CCF9A88222B800C1B9005979
:10016000BA002DEC8BF084CFCECDFCE5F0CBF97846
:1001700018EF2FFFEE33FEED33FDEC33FCEB33FBDA
:1001800010D703994004EB99FB0FD8E5E4F9FA2264
:100190007818EF2FFFEE33FEED33FDEC33FCC9335F
:1001A000C910D7059BE99A4007EC9BFCE99AF90F27
:1001B000D8E0E4C9FAE4CCFB2275F010EF2FFFEE93
:1001C00033FEED33FDCC33CCC833C810D7079BECDE
:1001D0009AE899400AED9BFDEC9AFCE899F80FD556
:1001E000F0DAE4CDFBE4CCFAE4C8F922EB9FF5F0B9
:1001F000EA9E42F0E99D42F0E89C45F022E8600F5B
:10020000EFC333FFEE33FEED33FDEC33FCD8F122C8
:10021000BB010789828A830204765005E9F802044B
:100220006ABBFE05E9F802048289828A8302048E91
:10023000ECF0A3EDF0A3EEF0A3EFF022D083D08298
:10024000F8E4937012740193700DA3A393F87401F2
:1002500093F5828883E4737402936860EFA3A3A389
:1002600080DFE51D2582F582E51C3583F583B51C0D
:100270000485821D2210AF0685821DF51C22858211
:100280001DF51CD2AF22EC8EF0A4CCC5F0CCCDF87D
:10029000EFA4CEC5F02DFDE43CFCE8A42EC8C5F0CB
:1002A0003DFDE43CFCEFA4FFE5F028FEE43DFDE469
:1002B0003CFC22E709F608DFFA8046E709F208DF8E
:1002C000FA803E88828C83E709F0A3DFFA8032E36C
:1002D00009F608DFFA806EE309F208DFFA80668823
:1002E000828C83E309F0A3DFFA805A89828A83E053
:1002F000A3F608DFFA804E89828A83E0A3F208DF42
:10030000FA804280D280FA80C680D4805580F28004
:1003100029801080A680EA809A80A880DA80E28016
:10032000CA802988848C8589828A83E493A3058680
:10033000F0A30586DFF5DEF3800B89828A83E493E0
:10034000A3F608DFF9ECFAA9F0EDFB2288848C858E
:1003500089828A83E0A30586F0A30586DFF6DEF4B2
:1003600080E389828A83E493A3F208DFF980D68848
:10037000F0EF60010E4E60CD88F0ED2402B4040071
:1003800050C3F582EB2402B4040050B92323458204
:100390002390030373E709F60870FA8046E709F231
:1003A0000870FA803E88828C83E709F0A370FA8097
:1003B00074E309F60870FA806CE309F20870FA80B9
:1003C0006488828C83E309F0A370FA805889828A5A
:1003D00083E0A3F60870FA804C89828A83E0A3F256
:1003E0000870FA804080D280FA80C680D480518024
:1003F000F28027801080A680EA809A80A880DA8028
:10040000E280CA802788848C8589828A83E493A3CA
:100410000586F0A3058670F5800B89828A83E493B4
:10042000A3F60870F9ECFAA9F0EDFB2288848C851C
:1004300089828A83E0A30586F0A3058670F680E5AD
:1004400089828A83E493A3F20870F980D888F0ED5A
:100450002402B4040050CEF582EB2402B404005010
:10046000C423234582239003E573E6FC08E6FD08D8
:10047000E6FE08E6FF22E0FCA3E0FDA3E0FEA3E029
:10048000FF22E2FC08E2FD08E2FE08E2FF22E4931C
:10049000FC740193FD740293FE740393FF22C0E089
:1004A000C0F0C083C082C085C084C086758600C08D
:1004B00093759300C0D075D000C000C001C002C0C9
:1004C00003C004C005C006C00790646BE0FF900045
:1004D0004FEFF0900053E0FFEF20E60302083E905C
:1004E000004FE0FFEF5401FF7E00EF4E7003020863
:1004F0003E900053E0FFEF12023C0510420510430E
:10050000064344076A450807480817600000082AA0
:1005100090004FE0FFEF5402FF7E00EF4E600302B9
:1005200005C7900053E0FFEF5443FF7E00EF6442A5
:100530004E707B900059E0FFEFD39400403E900056
:1005400050E0FBA3E0FAA3E0F912001AFF90640B5D
:10055000EFF0906478E0FFEF54CFFFEFF090647815
:10056000E0FFEF4404FFEFF090645BE4F09000568E
:100570007401F09000537444F002083E906478E0F7
:10058000FFEF4440FFEFF0906478E0FFEF4410FF8E
:10059000EFF090645BE4F090005AE0FFEF4402FF5C
:1005A00090005AEFF09000537410F002083E9064EF
:1005B00078E0FFEF54CBFFEFF090645BE4F0900045
:1005C000537445F002083E90004FE0FFEF5402FFE5
:1005D0007E00EF64024E7060900057E0FFEF540120
:1005E000FF7E00EF4E601F9000537460F090005A41
:1005F000E0FFEF4428FF90005AEFF07F0D1215ED59
:100600001218F302083E906478E0FFEF4440FFEFD9
:10061000F0906478E0FFEF4410FFEFF090645BE44B
:10062000F09000537410F090005AE0FFEF4420FF68
:1006300090005AEFF002083E7F0D1215ED1218F3EC
:1006400002083E90004FE0FFEF5402FF7E00EF4EA5
:10065000600302070A900059E0FF900056E0FEEEAA
:10066000C39F5043900050E0FBA3E0FAA3E0F99051
:100670000056E0FFE92FF9E43AFA12001AFF9064FD
:100680000BEFF0906478E0FFEF54CFFFEFF0906451
:1006900078E0FFEF4404FFEFF090645BE4F090003B
:1006A00056E004F002083E900057E0FFEF5401FFCF
:1006B0007E00EF4E601F9000537460F090005AE08F
:1006C000FFEF440AFF90005AEFF07F0D1215ED1274
:1006D00018F302083E121785906478E0FFEF44405B
:1006E000FFEFF0906478E0FFEF4410FFEFF09064CC
:1006F0005BE4F09000537410F090005AE0FFEF4478
:1007000002FF90005AEFF002083E900057E0FFEF22
:100710005401FF7E00EF4E601F9000537460F09014
:10072000005AE0FFEF441AFF90005AEFF07F0D12DD
:1007300015ED1218F302083E906478E0FFEF444094
:10074000FFEFF0906478E0FFEF4410FFEFF090646B
:100750005BE4F09000537410F090005AE0FFEF4417
:1007600012FF90005AEFF002083E90640BE0FF90F9
:10077000005BE0FBA3E0FAA3E0F9900055E0FEE99E
:100780002EF9E43AFAEF120033900055E004F090AD
:100790000058E0FF900055E0FEEEC39F50139064B8
:1007A00078E0FFEF54EBFFEFF090645BE4F00208B9
:1007B0003E900057E0FFEF5401FF7E00EF4E6016C1
:1007C0009000537460F090005AE0FFEF4409FF90EE
:1007D000005AEFF08068906478E0FFEF54FBFFEF81
:1007E000F0906478E0FFEF4410FFEFF090645BE47A
:1007F000F09000537410F090005AE0FFEF4401FFB6
:1008000090005AEFF0803790005AE0FFEF4480FFED
:1008100090005AEFF0802790005AE0FFEF4402FF6B
:1008200090005AEFF01218F380149000537410F0F7
:1008300090005AE0FFEF4480FF90005AEFF0D0079D
:10084000D006D005D004D003D002D001D000D0D043
:10085000D093D086D084D085D082D083D0F0D0E021
:10086000329048007440F0907010E4F0907020E4F2
:10087000F07B007A4679E8121949EF4401FD7B00CC
:100880007A4679E8121955751300E513C3940A5096
:1008900042AF13EF75F005A42468F582E43419F52E
:1008A00083AF82AE838E088F09AE08AF098F828E28
:1008B00083E493FB740193FA740293F9AE08AF09D1
:1008C0008F828E83740393FC740493FD1218320597
:1008D0001380B7751300E513C39401506CAF13EF89
:1008E00075F007A4241FF582E4341DF583AF82AEB2
:1008F000838E0A8F0BAE0AAF0B8F828E83E493FB3D
:10090000740193FA740293F98B0C8A0D890EAE0A66
:10091000AF0B8F828E83740393FE740493FF8E0F4C
:100920008F10AE0AAF0B8F828E83740593F511740E
:100930000693F512AB0CAA0DA90EAD10AC0FAF12B9
:10094000AE111217290513808D7E197F9A12175741
:100950007B007A5279007D077C001218327B007A86
:100960005279087D077C001218327B007A52791088
:100970007D077C001218327B007A5279187D077C43
:10098000001218327C1D7D187B007A5279207F0777
:100990007E001217297B007A5279287D077C00128D
:1009A00018327B007A5279307D077C001218327B36
:1009B000007A5279607D067C001218327B007A52F0
:1009C00079787D077C001218327B017A5079031206
:1009D0001949EF4402FD7B017A5079031219557BC6
:1009E000017A507913121949EF4402FD7B017A50C4
:1009F00079131219559043A0E0FFEF4440FF904354
:100A0000A0EFF09043C2E0FFEF4410FF9043C2EF2D
:100A1000F07C1D7D087B007A5179227F087E0012D0
:100A200017297C1D7D107B007A5179427F087E005A
:100A30001217299044F47401F0904800E4F0121069
:100A4000A79048007440F01219307B007A4379A0D7
:100A5000C003C002C0017B007A4379B08B198A1AA7
:100A6000891BD001D002D0037F0C7E001216B790F4
:100A700043B0E0FFEF54FDFF9043B0EFF022900051
:100A8000F9EFF09000FAEBF0A3EAF0A3E9F09000A0
:100A9000FF7402F0900053E0FFEF6410600D9000CF
:100AA00053E0FFEF64606003020BD1900053E0FF5E
:100AB000EF6460601890646BE0FFEF20E207900045
:100AC000FFE4F080209000FF7401F080189000FF98
:100AD000E4F090005AE0FFEF54F7FF90005AEFF077
:100AE0007F0D1215ED9000FFE0FFEF6003020BD1C8
:100AF0009000FEE0FFEF5402FF7E00EF4E6010908A
:100B00000057E0FFEF4401FF900057EFF0800E9098
:100B10000057E0FFEF54FEFF900057EFF09000F910
:100B2000E0FFEF25E0FF9000F9EFF09000F9E0FF23
:100B3000EF4401FF9000F9EFF09000537443F09000
:100B400000FAE0FBA3E0FAA3E0F990005BEBF0A36E
:100B5000EAF0A3E9F0900055E4F09000FDE0FF908A
:100B60000058EFF09000F9E0FF90640BEFF0900078
:100B7000FEE0FFEF5401FF7E00EF4E6028906478A6
:100B8000E0FFEF4420FFEFF0906478E0FFEF4410C7
:100B9000FFEFF0906478E0FFEF54BBFFEFF090645C
:100BA0005BE4F0801B906478E0FFEF5402FFEFF00D
:100BB000906478E0FFEF548BFFEFF090645BE4F01B
:100BC0001218E290005AE0FFEF54FEFF90005AEF37
:100BD000F09000FFE0FF229000F2EFF09000F3EBC6
:100BE000F0A3EAF0A3E9F09000F87402F09000534B
:100BF000E0FFEF6410600D900053E0FFEF64606071
:100C000003020D1C900053E0FFEF646060189064D5
:100C10006BE0FFEF20E2079000F8E4F08020900006
:100C2000F87401F080189000F8E4F090005AE0FFAA
:100C3000EF54F7FF90005AEFF07F0D1215ED900082
:100C4000F8E0FFEF6003020D1C9000F7E0FFEF54A7
:100C500002FF7E00EF4E6010900057E0FFEF44016E
:100C6000FF900057EFF0800E900057E0FFEF54FE2A
:100C7000FF900057EFF09000F2E0FFEF25E0FF90CB
:100C800000F2EFF09000537442F09000F3E0FBA309
:100C9000E0FAA3E0F9900050EBF0A3EAF0A3E9F04A
:100CA000900056E4F09000F6E0FF900059EFF090CD
:100CB00000F2E0FF90640BEFF09000F7E0FFEF54DC
:100CC00001FF7E00EF4E6028906478E0FFEF442043
:100CD000FFEFF0906478E0FFEF4410FFEFF09064D6
:100CE00078E0FFEF54BBFFEFF090645BE4F0801B13
:100CF000906478E0FFEF5402FFEFF0906478E0FF3B
:100D0000EF548BFFEFF090645BE4F01218E2900078
:100D10005AE0FFEF54FDFF90005AEFF09000F8E02A
:100D2000FF229001EFE4F0905120E0FFEF5480FFAC
:100D3000EFF0905122E0FFEF54F0FF9001EFEFF061
:100D40009001EFE0FFEF440FFF905122EFF0905140
:100D500023E0FFEF54F0FF9001EFEFF09001EFE0A0
:100D6000FF905123EFF0905124E0FFEF54F0FF90FB
:100D700001EFEFF09001EFE0FF905124EFF0905180
:100D800020E0FFEF54DFFFEFF0905120E0FFEF4451
:100D900040FFEFF07F007E00121788905120E0FFA7
:100DA000EF4410FFEFF07F017E0012178890512171
:100DB000E0FF9001EFEFF0905120E0FFEF54EFFFE4
:100DC000EFF09001EFE0FFEF5408FF9001EFEFF03C
:100DD000905120E0FFEF4410FFEFF07F017E001202
:100DE0001788905120E0FFEF54EFFFEFF09001EFF4
:100DF000E0FFEF709F905120E0FFEF54BFFFEFF056
:100E0000905120E0FFEF5480FFEFF0905122E0FF7F
:100E1000EF54F0FF9001EFEFF09001EFE0FF905101
:100E200022EFF0905123E0FFEF54F0FF9001EFEF3D
:100E3000F09001EFE0FFEF440FFF905123EFF090AF
:100E40005124E0FFEF54F0FF9001EFEFF09001EF3D
:100E5000E0FFEF440FFF905124EFF02275930075EF
:100E600083467582E8E04401F0009048007440F049
:100E700075811D9076BCE4F0A3F0A3F0A3F0907010
:100E800010F0907019F0907020F09076007410F0CF
:100E9000907604E4F0A37400F0A3E4F0A3F090785B
:100EA0000074FFF0A3740FF0A37401F0A37422F098
:100EB000A374BCF0A37476F0A3E4F0A3F0A374FFD2
:100EC000F0A3740FF0A374FFF0A37422F0A374BC1A
:100ED000F0A37476F0A3E4F0A37410F09070107493
:100EE00001F0907014F0E4900FFFF0901FFFF002FB
:100EF0000011751C20751D007E707F181200049073
:100F00007010F012086112146F020F47020F8CE488
:100F100093A3F8E493A34003F68001F208DFF48082
:100F200029E493A3F85407240CC8C333C4540F44D2
:100F300020C8834004F456800146F6DFE4800B01AC
:100F4000020408102040809014C6E47E019360BC27
:100F5000A3FF543F30E509541FFEE493A360010E44
:100F6000CF54C025E060A840B8E493A3FAE493A36B
:100F7000F8E493A3C8C582C8CAC583CAF0A3C8C58C
:100F800082C8CAC583CADFE9DEE780BED2AF1218C5
:100F9000E212189312186912187E7B017A00790107
:100FA000900012E0FF9000F6EFF09000F7E4F07F81
:100FB00050120BD71217E07E00EF30E1F77F0A7E68
:100FC000007D007C001211C27B017A007901900043
:100FD000F67401F09000F7E4F07F50120BD712176F
:100FE000E07E00EF30E1F77F017E001217887B0181
:100FF0007A007915900012E0FFEF14FF9000FDEFEA
:10100000F09000FEE4F07F50120A7E1217E07E009E
:10101000EF30E0F7900013E4F0900000E4F090006F
:1010200013E0FFEFC39408502D900000E0FD7F0017
:101030001213C1900013E0FF74152FF582E4340001
:10104000F583E0FF1217B5900013E004F090000064
:10105000E02402F080C89000137408F0900000E4CF
:10106000F0900012E0FFEF14FF900013E0FEEEC3DB
:101070009F4003020F97900000E0FD7F011213C113
:10108000900013E0FF74152FF582E43400F583E03F
:10109000FF1217B5900013E004F0900000E0240266
:1010A000F080BE020F97227E017F0790010BEEF0C9
:1010B000A3EFF07B007A4079807F0E7E007D187C64
:1010C000001218D09043007402F09040007408F0B1
:1010D0009042007403F07B0C7A0179081219499050
:1010E00046A1EFF07B007A4279227D087C0012193C
:1010F000139040007408F07B007A4279207D517C87
:101100001012191390010DE4F07F0E7E007D007C1B
:101110000090010712023090010BE0FEA3E0FF8F68
:10112000828E83E0FCA3E0FDA3E0FEA3E0FFEC4D94
:101130004E4F605490010DE0FFEF6403604A90420F
:1011400025E0FFEF5401FF7E0090010DE0FEEE254B
:10115000E0FEEE4FFFEF5403FF90010DEFF0900122
:1011600007E0FCA3E0FDA3E0FEA3E0FF7BFF7AFF26
:1011700079FF78FFEF2BFFEE3AFEED39FDEC38FCFE
:10118000900107120230808F7B007A4079047D0342
:101190007C01121913904004E4F09040047407F0AD
:1011A000904006E4F09040087448F0904004E4F069
:1011B0009040017402F09043A2E0FFEF4401FFEF82
:1011C000F02290FFFC1202621202307F007E807DCE
:1011D000007C00851C83851D82E0F8A3E0F9A3E074
:1011E000FAA3E0FBD31201EC4040900091E0FCA395
:1011F000E0FDA3E0FEA3E0FF121800851C83851D1F
:1012000082C083C082E0FCA3E0FDA3E0FEA3E0FF78
:10121000C3EF9400FFEE9480FEED9400FDEC94008B
:10122000FCD082D08312023080A1900088E0FCA321
:10123000E0FDA3E0FEA3E0FF851C83851D82E0F8AE
:10124000A3E0F9A3E0FAA3E0FB1200CF121800908C
:101250000004120262229001B9EFF09001BAEDF0A1
:101260009001BAE0FFEFD394075003D38001C3404D
:10127000209001BAE0FFEFD39407500A7F017E006F
:101280007D007C0080087F007E007D007C001218BD
:10129000539001B9E0FFEFD3941F5003D38001C3F3
:1012A00040209001B9E0FFEFD3941F500A7F017EE8
:1012B000007D007C0080087F007E007D007C0012A5
:1012C00018539001BAE0FFEFC43354E0FF9001B926
:1012D000E0FE74802EF582E43444F583EFF0227F43
:1012E000287E007D007C001211C27F031215167F3C
:1012F000057E007D007C001211C27F031215167F4F
:101300000F7E007D007C001211C27F031215167F34
:10131000017E007D007C001211C27F021215167F33
:10132000057E007D007C001211C27F061216347FFC
:101330000E1216347F2C1216347F081216347F01D9
:101340001216347F0C1216347F031216347F057E7A
:10135000007D007C001211C22290013CEFF0900150
:101360003DECF0A3EDF090013CE0FF7E02EF8EF04B
:10137000A4FFAEF0EF2400FFEE3444FEAA06A90756
:101380007B0112190690013FEEF0A3EFF090013CB3
:10139000E0FF7E02EF8EF0A4FFAEF0EF2400FFEE40
:1013A0003444FEAA06A9077B0190013DE0FEA3E0BC
:1013B000FFAD07AC0612191590013FE0FEA3E0FF58
:1013C000229001C3EFF09001C4EDF09001C3E0FF63
:1013D000EF12023C13E40013F10113FE02140B039D
:1013E000000014179001C4E0FFEF2480FF121634B0
:1013F000229001C4E0FFEF24C0FF121634229001B6
:10140000C4E0FFEF2494FF121634229001C4E0FFE1
:10141000EF24D4FF121634229001F0EFF0120D22C7
:10142000905120E0FFEF4420FFEFF0905120E0FFCB
:10143000EF54BFFFEFF0905120E0FFEF54F0FFEFCB
:10144000F0905120C083C082E0FF9001F0E0FEEEFA
:101450004410FEEF4EFFD082D083EFF07F017E007C
:10146000121788905120E0FFEF54EFFFEFF0229029
:10147000011E747FF090011F7480F09001F3747F5F
:10148000F09001F3E0FFEF60269001F3E0FFEF142E
:10149000FF9001F3E0FE75F008EEA42400F582E56C
:1014A000F03478F583EFF09001F3E014F080D290FF
:1014B00001F3E0FF75F008EFA42400F582E5F034B5
:1014C00078F583E4F02251000100010203040506CF
:1014D0000708090A0B0C0D0E0F10410012114400F1
:1014E0008D016E360044008800005DC041008C18FC
:1014F0004400912EE000004101ED004101CC00418B
:1015000001CB0044011A0000000043014600000026
:1015100042004C0000009001F1EFF0905120E0FFFC
:10152000EF549FFFEFF0905120E0FFEF54F0FFEFFA
:10153000F0905120C083C082E0FF9001F1E0FEEE08
:101540004410FEEF4EFFD082D083EFF07F017E008B
:10155000121788905120E0FFEF54EFFFEFF0229038
:101560000187EFF0900187E0FFEF131313541FFF83
:101570007E00EF24C0FFEE3444FE900188EEF0A31D
:10158000EFF0900187E0FFEF5407FF7401A8070810
:101590008002C333D8FCFF900188E0FCA3E0FD8DFE
:1015A000828C83EFF02290018DEFF090018DE0FFAF
:1015B000EF131313541FFF7E00EF24C8FFEE3444D3
:1015C000FE90018EEEF0A3EFF090018DE0FFEF545E
:1015D00007FF7401A807088002C333D8FCFF9001FD
:1015E0008EE0FCA3E0FD8D828C83EFF022900193CE
:1015F000EFF0900193E0FFEF131313541FFF7E00F1
:10160000EF24D8FFEE3444FE900194EEF0A3EFF007
:10161000900193E0FFEF5407FF7401A807088002D0
:10162000C333D8FCFF900194E0FCA3E0FD8D828CD5
:1016300083EFF0229001C7EFF09001C7E0FFEFC405
:10164000540FFF9001C8EFF0120D229001C8E0FF87
:10165000EF540FFF9001C8EFF09001C8E0FF1215A2
:10166000169001C7E0FFEF540FFF9001C8EFF09014
:1016700001C8E0FF1215162290648BE0FFEF4401D1
:10168000FFEFF090646BE0FF9001EDEFF07F0D1243
:1016900015A67C047D9E7F0D1213597D077F0D12C8
:1016A0001256900054E4F09000537410F01218A8F1
:1016B0001218BC12187E22758600EF4E602FEF6064
:1016C000010E8B938A838982851995851A85851BDE
:1016D00084E0A30586F0A31586E5834582700205A4
:1016E00093E585458470020595DFE6DEE4E4F59335
:1016F000F595229001C5EFF0120D229001C5E0FF93
:10170000EFC4540FFF9001C6EFF09001C6E0FF1246
:1017100014189001C5E0FFEF540FFF9001C6EFF0E1
:101720009001C6E0FF12141822758600EF4E602368
:10173000EF60010E8C838D828B958A858984E4937A
:10174000A30586F0A31586E585458470020595DF1F
:10175000EDDEEBE4F59522ACEAADA08E838F82E45A
:1017600093F9601CA3E493F5EAA3E493F5A0A3E442
:101770009360F1FAA3E493F8A3E493F2DAF6D9E4E0
:061780008DA08CEA22227C
:10178800EEFA90008CE0F88FF0A4FFAEF0E88AF053
:10179800A42EFEE5F03400FDEF24A6FF78FFEE3816
:1017A800FEED38FDE438FC5003021800229001F2E7
:1017B800EFF09001F2E0FFEFC4540FFFEF901D2609
:1017C80093FF1219229001F2E0FFEF540FFFEF9000
:1017D8001D2693FF12192222900053E0FFEFB41048
:1017E8000790005AE0FF222290005AE0FFEF4404DD
:0217F800FF22CE
:10180000904800E0C41313540390182E9304FB2B4C
:101810002B2417F404FB78FF00EC4D4E4F600EEFC5
:101820002BFFEE38FEED38FDEC38FC40EC220502D3
:101830000304EC4D6019ED60010C8B938A8389825F
:10184000E4F0A3E583458270020593DDF3DCF175D6
:101850009300229001E8EFF09001E8E0FF9001E8AA
:10186000EFF09046EA7401F0229001EDE0FFEF7096
:10187000091216789001ED7401F01219612290009E
:101880005AE0FF9001EBEFF090005AE4F09001EB8A
:10189000E0FF229001CBE0FFEF70091212DF900110
:1018A000CB7401F012193D22900055E4F090005ADB
:1018B000E0FFEF54FEFF90005AEFF022900056E454
:1018C000F090005AE0FFEF54FDFF90005AEFF02235
:1018D0008B938A838982EFF0A3EEF0A3EDF07593EA
:1018E000002290649BE0FFEF4410FFEFF07F0D12A9
:1018F000155F2290649BE0FFEF4410FFEFF07F0D37
:101900001215A6228B938A838982E0FFA3E0FE75DD
:101910009300228B938A838982EDF0A3ECF0759378
:1019200000229001EEEFF09001EEE0FF1216F3229C
:101930009051CD74AAF09058767444F0227F0C1226
:1019400016349001CC7401F0228B938A838982E053
:10195000759300FF228B938A838982EDF075930043
:10196000229064787402F02200510000200051306F
:10197000001000515000200051C000100051F00034
:10198000100100000A80010B00050001140008008E
:101990000140000A00014C0002000F0064032B0408
:1019A0002C0F3C08010501E280010834006401812C
:1019B000028A032004210575070A0801096D0A201F
:1019C0000B120C640D600E920F80110212FF13199E
:1019D00014401540169F179F182119181B671D04E6
:1019E0001EFF1F7A210222022501280429012A79DB
:1019F0002C25301F31E0321F331F34E4351F36E40D
:101A000037E03AAA3BAA3CAA3DAA580F590F5B05FA
:101A10005E045F10010935042005490C200D090EF4
:101A200002160217221C101D411E041F0624402509
:101A30001C26502C882E08361637503C583D013E47
:101A4000044A044B106C156F0874A8750876087763
:101A5000027E017F4091039390940A97089A029B1B
:101A6000609C019D019F12A203A4ACA514A640A7EF
:101A70000AB680C0F0C2F0C4D0CAE0CCF0CEF0DE2E
:101A800090010B430680071A0E400F291480150899
:101A9000160817401C901E40242025802602272867
:101AA0002CA82F0236123C203D083F8245224D03D0
:101AB0004E04560B57405C105E806090618062421D
:101AC0006320644066407F488840910A9208939161
:101AD000942A97089B409C019D039E01A010A1227F
:101AE000A211A305A444A514A708AC02AF02C0F03C
:101AF000C2F0C4F0CAF0CCA0CEF0D0A0D220D63034
:101B0000D890DEA0E280EA08EC02010C5300400409
:101B1000400590074408010A020BFF0C200D2D0E12
:101B2000040FD2100211031201140418041E18200D
:101B30000C21A72210234824142545260827BA295A
:101B40001F2A202B602C04301831FF320734203537
:101B5000FF364037FF38883BA23DA23E5540134632
:101B6000224705481C49FF4A7F4BFF4C424DA04E7F
:101B700070500851105804590F5A0F5E05614862A1
:101B8000406348654866806748851F8B12910193C2
:101B90000299209B089D109F20A120A304AB40AD7B
:101BA00012AF21B140B340B53FB73FB9A0BD55D941
:101BB0000FDE05010D4100080320040A0601070895
:101BC0000C060D9010041120124013011510166020
:101BD00017401D2A1F40202021052202230A2440ED
:101BE0002691280129012A102C402F1432823360BB
:101BF0003502382039203A083B203C703D083F1020
:101C000045C855405618580259015C105D106008CF
:101C10006308640A662067017B887FC88604884061
:101C20009848A301A720C0F0C2F0C4F0CAEDCC8D43
:101C3000CE76D050DEA5E608010F0288488B210140
:101C40001904B001B108B201B30801420335028999
:101C500002CC8001450A0B100E3058015C02640270
:101C600086108801C20CD603E4040146039210AC2E
:101C700002AF10014702B610EE0801500300010C3C
:101C8000010E01015101030C2061400E0844721243
:101C900001001EFF02010000010A000140002000B7
:101CA000181066431C006200020078020002600007
:101CB00004010000101C6A201F7F607F008000006C
:101CC0000200088A099A00002400000006D00DDBFB
:101CD00036FF7FFF42A070000810000000000400E3
:101CE0000F0F0F0F00000500000940093009000028
:101CF00000000000000000000000000000000000E4
:101D00000000000000000000007F7F0000000000D5
:101D10000000300030000000100000003000000122
:101D20000A801C88008030313233343536373839F8
:061D300041424344454618
:00000001FF
