:10000000008000202D030000E1220000E12200001A
:10001000E1220000E1220000E1220000E1220000D4
:10002000E1220000E1220000E1220000E1220000C4
:10003000E1220000E1220000E1220000E1220000B4
:10004000E1220000E1220000E1220000E1220000A4
:10005000E1220000E1220000E1220000E122000094
:10006000E1220000E1220000E1220000E122000084
:10007000E1220000E1220000E1220000E122000074
:10008000E1220000E1220000E1220000E122000064
:10009000E1220000E1220000E1220000E122000054
:1000A000E1220000E1220000E1220000E122000044
:1000B000E1220000E1220000E1220000E122000034
:1000C00080B51448144B21E05C689968DD688C4267
:1000D0000CD0002205E0A6180832D6E9008941E9D3
:1000E00002898C460831AA42F5D101E004EB050CE7
:1000F0001C696146002204E008320026002741E91D
:1001000002670831A242F7D1143301380028DBD14D
:1001100002F0CEF8010000008427000048F2281306
:10012000C1F6FF731A780AB901201870704700BF32
:1001300048F20010C1F6FF7008B503682BB140F219
:100140000003C0F2000303B1984708BD80B500AFBB
:1001500062B600F0C9FA01F047F900F0AFFA00F01A
:100160000DFB48F21513C1F6FF731B784FF05000DA
:1001700048F20411C1F6FF711A464FF0000300F077
:1001800015FB00F0DDFA034603F00203002BF8D064
:100190004FF00A0000F06CF94FF0500048F20411E3
:1001A000C1F6FF714FF001024FF0000300F0FEFABC
:1001B00000F0C6FA034603F00203002BF8D04FF01C
:1001C000010000F079F948F21513C1F6FF731B78AE
:1001D00003F1FF33DBB24FF0500048F23811C1F6A3
:1001E000FF711A464FF0000300F0E4FB00F0A8FA9C
:1001F000034603F00103002BF8D048F24713C1F681
:10020000FF734FF000021A7048F24913C1F6FF73F2
:100210004FF000021A7031E048F24913C1F6FF7343
:100220001B784FF00000194601F0F4F848F247132C
:10023000C1F6FF731B781A4648F23813C1F6FF73F4
:100240009B5C184601F004FB48F24713C1F6FF73AC
:100250001B7803F10103DAB248F24713C1F6FF73CA
:100260001A7048F24913C1F6FF731B7803F10203B9
:10027000DAB248F24913C1F6FF731A7048F2471315
:10028000C1F6FF731B78072BC6D948F24713C1F696
:10029000FF734FF008021A7048F24913C1F6FF735A
:1002A0004FF000021A7031E048F24913C1F6FF73B3
:1002B0001B784FF00100194601F0ACF848F24713E3
:1002C000C1F6FF731B781A4648F23813C1F6FF7364
:1002D0009B5C184601F0BCFA48F24713C1F6FF7365
:1002E0001B7803F10103DAB248F24713C1F6FF733A
:1002F0001A7048F24913C1F6FF731B7803F1020329
:10030000DAB248F24913C1F6FF731A7048F2471384
:10031000C1F6FF731B781A4648F21513C1F6FF7336
:100320001B7803F1FF339A42BEDB18E780B582B039
:1003300000AF44F2E863C4F200031B78DBB243F081
:100340000103FB7144F2E863C4F20003FA791A7006
:10035000FFF7B6FE07F10807BD4680BD80B582B045
:1003600000AF4EF60C53CEF2000340F20042C0F252
:10037000FA521A604EF61453CEF200034EF614529F
:10038000CEF20002126842F400721A604FF00003CD
:100390007B6014E07A687B684FEA830140F20003D7
:1003A000C0F200030B441B68194648F20003C1F673
:1003B000FF7343F822107B6803F101037B607B68C5
:1003C0002F2BE7D94EF60853CEF2000348F2000275
:1003D000C1F6FF721A6001F0ABFB00F005F807F1FF
:1003E0000807BD4680BD00BF80B483B000AF48F2AF
:1003F0002D13C1F6FF734FF07F021A7048F22C13D1
:10040000C1F6FF736FF07F021A704FF07F03FB712C
:100410000FE0FB794FEAC30303F1804303F5F04398
:10042000FA7902F1FF32D2B21A70FB7903F1FF338D
:10043000FB71FB79002BECD1FB794FEAC30303F18D
:10044000804303F5F0434FF000021A7007F10C07E8
:10045000BD4680BC704700BF80B483B000AF034688
:10046000FB7101BE07F10C07BD4680BC704700BFA1
:1004700080B582B000AF78600BE048F22413C1F67B
:10048000FF731B68184601F03BFD7B68A3F5004332
:100490007B607B68B3F5004FEFD848F21C13C1F6C0
:1004A000FF731B687A6802FB03F3184601F028FD0E
:1004B00007F10807BD4680BD80B582B000AF034696
:1004C000FB80FA8848F22013C1F6FF731B7803FB08
:1004D00002F3184601F014FD07F10807BD4680BD80
:1004E00080B485B000AF03463960FB714EF6085307
:1004F000CEF200031B68FB60FB7903F110034FEAA7
:100500008302FB6813441B68BB60FB7903F1100393
:100510004FEA8302FB6813443A681A60BB681846C6
:1005200007F11407BD4680BC704700BF80B582B09C
:1005300000AF02460B46FA71BB71BB79072B07D996
:10054000BB79072B8CBF002301231846FFF784FFDC
:10055000FB791F2B07D9FB791F2B8CBF00230123AD
:100560001846FFF779FFFB7903F1604303F5644315
:10057000BA794FEA4212D2B21A7007F10807BD46A3
:1005800080BD00BF80B485B000AF0346FB714EF262
:100590000013CEF20003FB60FB7903F01F034FF062
:1005A000010202FA03F31A46FB681A6007F1140706
:1005B000BD4680BC704700BF80B485B000AF034625
:1005C000FB714EF28013CEF20003FB60FB7903F067
:1005D0001F034FF0010202FA03F31A46FB681A6088
:1005E00007F11407BD4680BC704700BF80B485B0DA
:1005F00000AF0346FB714EF28023CEF20003FB6096
:10060000FB7903F01F034FF0010202FA03F31A46CD
:10061000FB681A6007F11407BD4680BC704700BF35
:1006200080B500AF46F28B43C4F2000346F28B4222
:10063000C4F200021278D2B242F00102D2B21A70B1
:1006400046F26B43C4F200031B78DAB248F234136B
:10065000C1F6FF731A704FF00D00FFF7ADFF4FF0BA
:100660000D0040F63941C0F20001FFF739FF4FF0AD
:100670000D004FF00701FFF759FF48F24C13C1F688
:10068000FF734FF000021A7048F25713C1F6FF7360
:100690004FF010021A7000F095FA00F0ADFA00F079
:1006A0006DF880BD80B400AF46F27843C4F2000319
:1006B0004FF002021A70BD4680BC704780B500AF93
:1006C00048F23413C1F6FF731B78002B08D1FFF7F3
:1006D000A7FF48F23413C1F6FF734FF001021A70FE
:1006E000FFF7E0FF80BD00BF80B500AF46F29B433F
:1006F000C4F2000346F29B42C4F200021278D2B266
:1007000042F01002D2B21A704FF00D00FFF73AFF1C
:1007100080BD00BF80B500AF46F29B43C4F200032A
:1007200046F29B42C4F200021278D2B242F01002AA
:10073000D2B21A704FF00D00FFF73EFF80BD00BF30
:1007400080B400AF48F25713C1F6FF731B78DBB2D9
:10075000102B06D148F24F13C1F6FF731B78DBB2A2
:1007600008E048F24F13C1F6FF731B78DBB243F089
:100770000403DBB21846BD4680BC704780B483B02A
:1007800000AF48F24F13C1F6FF731B78FB7148F2BC
:100790004F13C1F6FF734FF000021A70FB79184631
:1007A00007F10C07BD4680BC704700BF80B586B01E
:1007B00000AFB9600146F973FA71BB714FF00203E3
:1007C000FB7548F25713C1F6FF731B78DBB2102B91
:1007D00008D048F25713C1F6FF731B78DBB2602BC9
:1007E00040F0E18048F25713C1F6FF731B78DBB28B
:1007F000602B11D046F26B43C4F200031B78DBB2CE
:1008000003F00403002B03D14FF00003FB7518E045
:100810004FF00103FB7514E04FF00003FB7548F245
:100820004F13C1F6FF731B78DBB21A4602F0F702D2
:1008300048F24F13C1F6FF731A704FF00D00FFF727
:10084000D5FEFB7D002B40F0AE80BB7903F00203A8
:10085000002B0ED048F25413C1F6FF731B78DBB2A5
:1008600043F00103DAB248F25413C1F6FF731A7071
:100870000DE048F25413C1F6FF731B78DBB21A4641
:1008800002F0FE0248F25413C1F6FF731A70FB7BAC
:100890004FEA4303FB7348F25713C1F6FF734FF05F
:1008A00042021A7048F25813C1F6FF73BA681A6010
:1008B00048F24D13C1F6FF734FF000021A7048F270
:1008C0004E13C1F6FF73FA791A7046F20B43C4F265
:1008D0000003FA7B1A70BB7903F00103DBB2002B33
:1008E00030D046F27843C4F2000346F27842C4F2B4
:1008F00000021278D2B242F02002D2B21A7046F24E
:100900007843C4F2000346F27842C4F2000212783F
:10091000D2B242F01002D2B21A7046F27843C4F258
:10092000000346F27842C4F200021278D2B202F01A
:10093000BB021A7046F25B43C4F200034FF00002A0
:100940001A7020E046F27843C4F2000346F278427F
:10095000C4F200021278D2B202F002021A7046F219
:100960007843C4F2000346F27842C4F200021278DF
:10097000D2B202F08B021A7046F25B43C4F200035B
:100980004FF000021A70FFF7AFFE48F24F13C1F6A6
:10099000FF731B78DBB21A4602F0FD0248F24F13D8
:1009A000C1F6FF731A70FB7D184607F11807BD46A4
:1009B00080BD00BF80B586B000AFB9600146F97355
:1009C000FA71BB714FF00203FB7548F25713C1F681
:1009D000FF731B78DBB2102B08D048F25713C1F617
:1009E000FF731B78DBB2602B40F0E58048F25713B1
:1009F000C1F6FF731B78DBB2602B11D046F26B435C
:100A0000C4F200031B78DBB203F00403002B03D114
:100A10004FF00003FB7518E04FF00103FB7514E085
:100A20004FF00003FB7548F24F13C1F6FF731B78BC
:100A3000DBB21A4602F0F70248F24F13C1F6FF7319
:100A40001A704FF00D00FFF7D1FDFB7D002B40F039
:100A5000B280BB7903F00203002B0ED048F254138E
:100A6000C1F6FF731B78DBB243F00103DAB248F240
:100A70005413C1F6FF731A700DE048F25413C1F617
:100A8000FF731B78DBB21A4602F0FE0248F25413E1
:100A9000C1F6FF731A70FB7B4FEA4303FB73FB7BCA
:100AA00043F00103FB7348F25713C1F6FF734FF095
:100AB00043021A7048F25013C1F6FF73BA681A6005
:100AC00048F25613C1F6FF734FF000021A7048F255
:100AD0005513C1F6FF73FA791A7046F20B43C4F24C
:100AE0000003FA7B1A70BB7903F00103DBB2002B21
:100AF00030D046F27843C4F2000346F27842C4F2A2
:100B000000021278D2B242F02002D2B21A7046F23B
:100B10007843C4F2000346F27842C4F2000212782D
:100B2000D2B242F01002D2B21A7046F27843C4F246
:100B3000000346F27842C4F200021278D2B202F008
:100B4000BB021A7046F25B43C4F200034FF000028E
:100B50001A7020E046F27843C4F2000346F278426D
:100B6000C4F200021278D2B202F002021A7046F207
:100B70007843C4F2000346F27842C4F200021278CD
:100B8000D2B202F08B021A7046F25B43C4F2000349
:100B90004FF000021A70FFF7A7FD48F24F13C1F69D
:100BA000FF731B78DBB21A4602F0FE0248F24F13C5
:100BB000C1F6FF731A70FB7D184607F11807BD4692
:100BC00080BD00BF80B400AF48F25613C1F6FF737A
:100BD0004FF000021A7048F24F13C1F6FF731B78F2
:100BE000DBB21A4602F0FE0248F24F13C1F6FF7361
:100BF0001A70BD4680BC704780B400AF48F24D13F8
:100C0000C1F6FF734FF000021A7048F24F13C1F69D
:100C1000FF731B78DBB21A4602F0FD0248F24F1355
:100C2000C1F6FF731A70BD4680BC704780B400AF38
:100C3000BD4680BC704700BF80B500AF46F26B4335
:100C4000C4F200031B78DAB248F23513C1F6FF7321
:100C50001A7048F25713C1F6FF731B78DBB203F02A
:100C60004003002B00F0688348F23513C1F6FF7390
:100C70001B7803F00103DBB2002B00F05D8348F228
:100C80005713C1F6FF731B78DBB2A3F142031E2B8F
:100C900000F23B8301A252F823F000BF190D0000BF
:100CA000190D0000530F00008D1100000B13000000
:100CB0000B130000C71200000B1300000B13000001
:100CC0000B1300000B1300000B1300000B130000AC
:100CD0000B1300000B1300000B1300000B1300009C
:100CE0000B1300000B1300000B1300000B1300008C
:100CF0000B1300000B1300000B1300000B1300007C
:100D00000B1300000B1300000B1300000B1300006B
:100D10000B130000E912000048F23513C1F6FF730F
:100D20001B7803F00203002B40F0A38048F2571316
:100D3000C1F6FF731B78DBB203F04303422B7CD177
:100D400048F24E13C1F6FF731B78DBB2002B3BD089
:100D500046F20B43C4F2000348F25812C1F6FF7288
:100D6000126812781A7046F27843C4F2000346F211
:100D70007842C4F200021278D2B202F0CF021A70A6
:100D800046F27843C4F2000346F27842C4F200020D
:100D90001278D2B242F00402D2B21A7046F25B4329
:100DA000C4F200034FF000021A7048F24D13C1F66E
:100DB000FF734FF001021A7048F25713C1F6FF7328
:100DC0004FF044021A70B7E246F27843C4F20003CF
:100DD00046F27842C4F200021278D2B242F04002E7
:100DE000D2B21A7046F27843C4F2000346F2784257
:100DF000C4F200021278D2B242F01002D2B21A70DB
:100E000046F25B43C4F200034FF000021A7048F24E
:100E10004F13C1F6FF731B78DBB243F00203DAB263
:100E200048F24F13C1F6FF731A7048F25713C1F618
:100E3000FF734FF010021A707EE246F27843C4F25C
:100E4000000346F27842C4F200021278D2B202F0F5
:100E5000CB021A7046F25B43C4F200034FF000026B
:100E60001A7048F25713C1F6FF734FF045021A701B
:100E700062E248F23513C1F6FF731B7803F00203F8
:100E8000002B5FD048F25413C1F6FF731B78DBB21E
:100E900003F00103DBB2002B1BD048F25713C1F65D
:100EA000FF734FF060021A7048F24F13C1F6FF73E0
:100EB0001B78DBB243F02803DAB248F24F13C1F6D5
:100EC000FF731A704FF00D00FFF790FBFFF722FC45
:100ED00032E246F27843C4F2000346F27842C4F2AA
:100EE00000021278D2B242F04002D2B21A7046F238
:100EF0007843C4F2000346F27842C4F2000212784A
:100F0000D2B242F01002D2B21A7046F25B43C4F27F
:100F100000034FF000021A7048F25713C1F6FF7336
:100F20004FF010021A7048F24F13C1F6FF731B788E
:100F3000DBB243F02003DAB248F24F13C1F6FF737D
:100F40001A70F9E14FF00D00FFF750FBFFF7E2FBDD
:100F5000F2E148F23513C1F6FF731B7803F0020388
:100F6000002B40F0B38048F24D13C1F6FF731B789D
:100F7000DAB248F24E13C1F6FF731B78DBB29A4225
:100F800042D246F20B43C4F2000348F25812C1F6B3
:100F9000FF72116848F24D12C1F6FF721278D2B298
:100FA0000A4412781A7046F27843C4F2000346F2FB
:100FB0007842C4F200021278D2B202F0CF021A7064
:100FC00046F27843C4F2000346F27842C4F20002CB
:100FD0001278D2B242F00402D2B21A7046F25B43E7
:100FE000C4F200034FF000021A7048F24D13C1F62C
:100FF000FF731B78DBB203F10103DAB248F24D1341
:10100000C1F6FF731A7097E148F25413C1F6FF73EB
:101010001B78DBB203F00103DBB2002B1BD048F2DC
:101020005713C1F6FF734FF060021A7048F24F1366
:10103000C1F6FF731B78DBB243F00A03DAB248F261
:101040004F13C1F6FF731A704FF00D00FFF7CEFA81
:10105000FFF760FB70E1FFF7E9FD46F27843C4F269
:10106000000346F27842C4F200021278D2B242F093
:101070004002D2B21A7046F27843C4F2000346F23C
:101080007842C4F200021278D2B242F01002D2B218
:101090001A7046F25B43C4F200034FF000021A706C
:1010A00048F25713C1F6FF734FF010021A7048F25E
:1010B0004F13C1F6FF731B78DBB243F00203DAB2C1
:1010C00048F24F13C1F6FF731A7035E148F254131A
:1010D000C1F6FF731B78DBB203F00103DBB2002B18
:1010E0001BD048F25713C1F6FF734FF060021A701D
:1010F00048F24F13C1F6FF731B78DBB243F01A03BB
:10110000DAB248F24F13C1F6FF731A704FF00D00B8
:10111000FFF76CFAFFF7FEFA0EE146F27843C4F2ED
:10112000000346F27842C4F200021278D2B242F0D2
:101130004002D2B21A7046F27843C4F2000346F27B
:101140007842C4F200021278D2B242F01002D2B257
:101150001A7046F25B43C4F200034FF000021A70AB
:1011600048F25713C1F6FF734FF010021A7048F29D
:101170004F13C1F6FF731B78DBB243F01203DAB2F0
:1011800048F24F13C1F6FF731A70D5E048F25013BE
:10119000C1F6FF731A6848F25613C1F6FF731B7845
:1011A000DBB21A4446F20B43C4F200031B78DBB2F5
:1011B000137048F25613C1F6FF731B78DBB203F1CC
:1011C0000103DAB248F25613C1F6FF731A7048F2FF
:1011D0005613C1F6FF731B78DAB248F25513C1F605
:1011E000FF731B78DBB29A4214D246F27843C4F202
:1011F000000346F27842C4F200021278D2B202F042
:10120000EB021A7046F25B43C4F200034FF0000297
:101210001A7091E048F25413C1F6FF731B78DBB2E9
:1012200003F00103DBB2002B15D048F25713C1F6CF
:10123000FF734FF060021A7048F24F13C1F6FF734C
:101240001B78DBB243F00903DAB248F24F13C1F660
:10125000FF731A7070E046F27843C4F2000346F25E
:101260007842C4F200021278D2B202F0FB021A7085
:1012700046F27843C4F2000346F27842C4F2000218
:101280001278D2B242F01002D2B21A7046F25B4328
:10129000C4F200034FF000021A7048F25713C1F66F
:1012A000FF734FF010021A7048F24F13C1F6FF732C
:1012B0001B78DBB243F00103DAB248F24F13C1F6F8
:1012C000FF731A7038E048F24F13C1F6FF731B78B2
:1012D000DBB26FEA43636FEA5363DAB248F24F134B
:1012E000C1F6FF731A7027E048F24F13C1F6FF737F
:1012F0001B78DBB243F00203DAB248F24F13C1F6B7
:10130000FF731A70FFF706FA16E048F25713C1F69A
:10131000FF734FF010021A7048F24F13C1F6FF73BB
:101320001B78DBB26FEA43636FEA5363DAB248F2C9
:101330004F13C1F6FF731A7080BD00BF80B500AFB8
:101340004FF02800FFF794F84FF0030000F03AFA4E
:101350004FF00500FFF78CF84FF0030000F032FA71
:101360004FF00F00FFF784F84FF0030000F02AFA67
:101370004FF00100FFF77CF84FF0020000F022FA76
:101380004FF00500FFF774F84FF0060000F0A6F8E4
:101390004FF00E0000F0A2F84FF02C0000F09EF885
:1013A0004FF0080000F09AF84FF0010000F096F8B6
:1013B0004FF00C0000F092F84FF0030000F08EF8B0
:1013C0004FF00500FFF754F880BD00BF80B500AFB7
:1013D0004FF00C0000F082F848F23613C1F6FF73AC
:1013E0004FF001021A7080BD80B500AF48F237138C
:1013F000C1F6FF731B78002B08D1FFF79FFF48F25F
:101400003713C1F6FF734FF001021A70FFF7DEFFCA
:1014100080BD00BF80B582B000AF02460B46FA71B6
:10142000BB71FB79032B2AD801A252F823F000BF2D
:1014300041140000511400006114000071140000F8
:10144000BB79A3F18003DBB2184600F047F816E041
:10145000BB79A3F14003DBB2184600F03FF80EE081
:10146000BB79A3F16C03DBB2184600F037F806E055
:10147000BB79A3F12C03DBB2184600F02FF807F17B
:101480000807BD4680BD00BF80B582B000AF0346EF
:10149000FB71FB79184600F005F807F10807BD4617
:1014A00080BD00BF80B584B000AF0346FB7100F083
:1014B00035F8FB794FEA1313FB73FB7B184600F0FA
:1014C0002BF9FB7903F00F03FB73FB7B184600F04D
:1014D00023F907F11007BD4680BD00BF80B584B079
:1014E00000AF0346FB71FB794FEA1313FB7300F067
:1014F00015F8FB7B03F00F03FB73FB7B184600F032
:1015000061F9FB7903F00F03FB73FB7B184600F0D6
:1015100059F907F11007BD4680BD00BF80B582B004
:1015200000AF4FF00003FB7145F22013C4F200033B
:1015300045F22012C4F200021278D2B202F0800208
:101540001A7045F22213C4F200031B78DBB223F0B9
:101550000F03FB7145F22213C4F20003FA7942F043
:101560000F02D2B21A7045F22313C4F200031B78A3
:10157000DBB223F00F03FB7145F22313C4F2000327
:10158000FA791A7045F22413C4F200031B78DBB217
:1015900023F00F03FB7145F22413C4F20003FA7920
:1015A0001A7045F22013C4F2000345F22012C4F26F
:1015B00000021278D2B202F0DF021A7045F2201354
:1015C000C4F2000345F22012C4F200021278D2B233
:1015D00042F04002D2B21A704FF00000FEF76CFFEA
:1015E00045F22013C4F2000345F22012C4F20002B7
:1015F0001278D2B242F01002D2B21A704FF001004B
:10160000FEF75AFF45F22113C4F200031B78FB7169
:1016100045F22013C4F2000345F22012C4F2000286
:101620001278D2B202F0EF021A70FB7903F00803CD
:10163000FB7145F22013C4F2000345F22012C4F2FC
:1016400000021278D2B242F01002D2B21A704FF0F9
:101650000100FEF731FF45F22013C4F2000345F20A
:101660002012C4F200021278D2B202F0EF021A7015
:10167000FB79002BB0D145F22013C4F2000345F2F0
:101680002012C4F200021278D2B202F0BF021A7025
:1016900045F22013C4F2000345F22012C4F2000206
:1016A0001278D2B202F080021A7045F22213C4F20C
:1016B00000031B78DBB223F00F03FB7145F222130A
:1016C000C4F20003FA791A7045F22313C4F200033E
:1016D0001B78DBB223F00F03FB7145F22313C4F236
:1016E0000003FA7942F00F02D2B21A7045F22413C5
:1016F000C4F200031B78DBB223F00F03FB7145F249
:101700002413C4F20003FA7942F00F02D2B21A7025
:1017100007F10807BD4680BD80B582B000AF034623
:10172000FB71FFF7FBFE45F22013C4F2000345F204
:101730002012C4F200021278D2B242F02002D2B2D9
:101740001A7045F22013C4F2000345F22012C4F2CD
:1017500000021278D2B202F0BF021A7045F22013D2
:10176000C4F2000345F22012C4F200021278D2B291
:1017700002F0F0021A7045F22013C4F2000345F2A1
:101780002012C4F200021278D1B2FA7941EA0202C0
:10179000D2B242F01002D2B21A704FF00100FEF73E
:1017A0008BFE45F22013C4F2000345F22012C4F26E
:1017B00000021278D2B202F0EF021A7007F10807A5
:1017C000BD4680BD80B582B000AF0346FB7145F2D7
:1017D0002013C4F2000345F22012C4F20002127872
:1017E000D2B202F09F021A7045F22013C4F2000335
:1017F00045F22012C4F200021278D2B202F0F002D6
:101800001A7045F22013C4F2000345F22012C4F20C
:1018100000021278D1B2FA7941EA0202D2B242F061
:101820001002D2B21A704FF00100FEF745FE45F2E9
:101830002013C4F2000345F22012C4F20002127811
:10184000D2B202F0EF021A7007F10807BD4680BD60
:1018500080B582B000AF0346FB71FB794FEA1313EA
:10186000DBB21A4642F23433C0F200039B5C1846E6
:10187000FFF70AFEFB7903F00F0242F23433C0F2A5
:1018800000039B5C1846FFF7FFFD07F10807BD4604
:1018900080BD00BF80B485B000AF786039607B68E0
:1018A000FB6007E0FB684FF000021A70FB6803F171
:1018B0000103FB603B68002B0CBF00230123DBB25C
:1018C0003A6802F1FF323A60002BEBD107F11407BE
:1018D000BD4680BC704700BF80B487B000AFF860E1
:1018E000B9607A60FB683B61BB687B610BE07B6938
:1018F0001A783B691A703B6903F101033B617B690C
:1019000003F101037B617B68002B0CBF00230123E3
:10191000DBB27A6802F1FF327A60002BE7D107F17F
:101920001C07BD4680BC704780B485B000AF4FF047
:1019300000037B604FF000033B6037E03A6842F2FF
:101940008833C0F2000353F82230BB60BB68FB73DE
:10195000BB6823F0FF03BB6018E07A6842F2C8332B
:10196000C0F2000313F812301A46BB68134419463C
:101970007B6842F2C832C0F200024FEA43031344CC
:101980005B780B707B6803F101037B60FB7B002BB2
:101990000CBF00230123DBB2FA7B02F1FF32FA73A2
:1019A000002BDAD13B6803F101033B603B680F2B4E
:1019B000C4D907F11407BD4680BC704780B584B018
:1019C00000AF07F10803FB6044F28000C4F200009E
:1019D00040F20E01C0F2180100F012FB44F2003395
:1019E000C4F200034FF002021A7044F20003C4F282
:1019F00000034FF008021A7044F20023C4F20003FF
:101A00004FF003021A7044F2A163C4F2000340F2E3
:101A10000812C4F600121278D2B21A7044F22223CD
:101A2000C4F200034FF008021A8044F20003C4F22B
:101A300000034FF008021A7044F22023C4F200039E
:101A400041F251021A804FF00003FB714FF498737A
:101A5000BB6016E0FB79DBB24FEA4303DAB244F233
:101A60002523C4F200031B78DBB203F0010342EA32
:101A70000303DBB203F00303FB71BB6803F1FF3325
:101A8000BB60FB681B68002B03D0FB79DBB2032B28
:101A9000E0D144F20403C4F2000340F203121A80BE
:101AA00044F20403C4F200034FF000021A7044F23F
:101AB0000403C4F200034FF007021A7044F2060355
:101AC000C4F200034FF000021A7044F20803C4F29B
:101AD00000034FF048021A7044F20403C4F20003FA
:101AE0004FF000021A7044F20103C4F200034FF0F9
:101AF00002021A7044F2A233C4F2000344F2A2328A
:101B0000C4F200021278D2B242F00102D2B21A70CC
:101B100007F11007BD4680BD80B400AF45F67603DF
:101B2000C4F200034FF044021A70BD4680BC7047F7
:101B300080B586B000AF72B644F60003C4F200036D
:101B40004FF041021A7047F21003C4F200034FF045
:101B500000021A7047F22003C4F200034FF00002A3
:101B60001A7045F67C03C4F200034FF001021A70AC
:101B700044F2E863C4F2000344F2E862C4F20002F3
:101B80001278D2B242F00102D2B21A704FF00003C2
:101B9000FB7031E0FA7813464FEA430313444FEAEF
:101BA00043031A4642F24433C0F2000313447B60FD
:101BB0007B681A7859784FEA012141EA0202997844
:101BC0004FEA014141EA0202DB784FEA036343EA4C
:101BD00002031A467B6819795B794FEA032343EACB
:101BE00001039BB210464FF000011A4600F0F6FACE
:101BF000FB7803F10103FB70FB780A2BCAD94FF085
:101C00000003FB7043E0FA7813464FEA8303134462
:101C10004FEA43031A4642F24C73C0F200031344E6
:101C2000BB60BB681A7859784FEA012141EA020289
:101C300099784FEA014141EA0202DB784FEA0363F7
:101C400043EA0203FB60BB681A7959794FEA012124
:101C500041EA020299794FEA014141EA0202DB7945
:101C60004FEA036343EA02033B61BB681A7A5B7A7B
:101C70004FEA032343EA0203FB82FB8AF8683969CF
:101C80001A4600F0E3F9FB7803F10103FB70FB78DF
:101C9000012BB8D9FFF748FE45F20020C4F200003E
:101CA0004FF00701FFF7F6FD45F20820C4F20000EF
:101CB0004FF00701FFF7EEFD45F21020C4F20000DF
:101CC0004FF00701FFF7E6FD45F21820C4F20000CF
:101CD0004FF00701FFF7DEFD45F22020C4F20000BF
:101CE00042F24471C0F200014FF00702FFF7F4FD29
:101CF00045F22820C4F200004FF00701FFF7CAFDAB
:101D000045F23020C4F200004FF00701FFF7C2FD9A
:101D100045F26020C4F200004FF00601FFF7BAFD63
:101D200045F27820C4F200004FF00701FFF7B2FD42
:101D300045F20303C4F2010345F20302C4F20102B7
:101D40001278D2B242F00202D2B21A7045F21303F4
:101D5000C4F2010345F21302C4F201021278D2B2B6
:101D600042F00202D2B21A7044F2A033C4F200036D
:101D700044F2A032C4F200021278D2B242F0400221
:101D8000D2B21A7044F2C233C4F2000344F2C23237
:101D9000C4F200021278D2B242F01002D2B21A702B
:101DA00045F22210C4F2000042F23471C0F2000188
:101DB0004FF0080200F04AF945F24210C4F2000068
:101DC00042F23C71C0F200014FF0080200F03EF90F
:101DD00044F60003C4F200034FF001021A70FFF74B
:101DE000EDFD44F60003C4F200034FF041021A7007
:101DF000FFF792FE44F2B030C4F2000044F2A0318A
:101E0000C4F200014FF00C0200F020F944F2B033AC
:101E1000C4F2000344F2B032C4F200021278D2B22B
:101E200002F0FD021A7007F11807BD4680BD00BF21
:101E300000000000000000000000000000000000A2
:101E40000000000000000000000000000000000092
:101E50000000000000000000000000000000000082
:101E60000000000000000000000000000000000072
:101E70000000000000000000000000000000000062
:101E80000000000000000000000000000000000052
:101E90000000000000000000000000000000000042
:101EA0000000000000000000000000000000000032
:101EB0000000000000000000000000000000000022
:101EC0000000000000000000000000000000000012
:101ED0000000000000000000000000000000000002
:101EE00000000000000000000000000000000000F2
:101EF00000000000000000000000000000000000E2
:101F00000230800803D000BF01380046FCD1704782
:101F1000EFF3108072B6704780F31088704700BFEF
:101F2000AFF30080AFF30080AFF30080AFF3008029
:101F3000AFF30080AFF30080AFF30080AFF3008019
:101F40000000000000000000000000000000000091
:101F50000000000000000000000000000000000081
:101F60000000000000000000000000000000000071
:101F70000000000000000000000000000000000061
:101F80000000000000000000000000000000000051
:101F90000000000000000000000000000000000041
:101FA0000000000000000000000000000000000031
:101FB0000000000000000000000000000000000021
:101FC0000000000000000000000000000000000011
:101FD0000000000000000000000000000000000001
:101FE00000000000000000000000000000000000F1
:101FF00000000000000000000000000000000000E1
:1020000080B483B000AF786039603B68DAB27B6837
:102010001A707B6803F101037B603B684FEA13236E
:102020003B603B68DAB27B681A707B6803F101039E
:102030007B603B684FEA13233B603B68DAB27B6806
:102040001A7007F10C07BD4680BC7047032A2DE9C2
:10205000F0070BD83AB1002311F803C000F803C011
:1020600001339342F8D1BDE8F007704782180C465F
:10207000034603E014F8011C03F8011C03F00306F7
:102080001946A44601330134002EF3D11CF0030499
:10209000634608BFC1EB020C68D06542C4F1040A74
:1020A0000CEB050733464FEACA0A5CF805604FEAB5
:1020B000C408551A08E057F8044F264604FA0AF4F3
:1020C00049EA0404CC5004335C18032D26FA08F9BD
:1020D000A5F104050CEB0306EDDC002302E0F15C46
:1020E000E154013319199142F9D3BCE753F8404C3C
:1020F00041F8404C53F83C4C41F83C4C53F8384CB8
:1021000041F8384C53F8344C41F8344C53F8304CC7
:1021100041F8304C53F82C4C41F82C4C53F8284CD7
:1021200041F8284C53F8244C41F8244C53F8204CE7
:1021300041F8204C53F81C4C41F81C4C53F8184CF7
:1021400041F8184C53F8144C41F8144C53F8104C07
:1021500041F8104C53F80C4C41F80C4C53F8084C17
:1021600041F8084C53F8044C41F8044C1C460D4609
:1021700040334031BCF13F0FACF1400CB6DC21469E
:102180002B46541B0FE051F8105C43F8105C51F8DB
:102190000C5C43F80C5C51F8085C43F8085C51F89F
:1021A000045C43F8045C0F2C0D469C4601F11001C1
:1021B00003F11003A4F11004E5DCCCEB02010023D1
:1021C00003E0EC584CF8034004335E19032903EB99
:1021D0000C04A1F10401F4DC7FE700BF032AC9B2BB
:1021E00030B407D822B10023C15401339342FBD14C
:1021F00030BC704700EB020C034601E003F8011C01
:1022000003F003041A460133002CF7D14FF00133D9
:10221000C2EB0C0403FB01F31FE042F8403C42F820
:102220003C3C42F8383C42F8343C42F8303C42F8FE
:102230002C3C42F8283C42F8243C42F8203C42F82E
:102240001C3C42F8183C42F8143C42F8103C42F85E
:102250000C3C42F8083C42F8043C154640323F2C06
:10226000A4F14004D9DC2A46C5EB0C0407E042F88F
:10227000103C42F80C3C42F8083C42F8043C15463D
:1022800010320F2CA4F11004F1DC2A46C5EB0C052A
:1022900001E042F8043C14460432032DA5F1040584
:1022A000F7DC01E004F8011B6445FBD3A0E700BFA5
:1022B00008B500F017F8074800B10068064901B1F9
:1022C00009680022FDF742FF044B0BB1AFF3008019
:1022D000FEE700BF0000000000000000000000005A
:1022E000FEE7000070B542F26C7642F26C75C0F207
:1022F0000006C0F20005761BB61006D0002455F883
:10230000243001349847A642F9D842F26C7542F263
:102310007476C0F20005C0F20006761B00F020FAC9
:10232000B61006D0002455F8243001349847A64250
:04233000F9D870BDAB
:1023340030313233343536373839414243444546F7
:102344000051004020003051004010005051004026
:102354002000C05100401000F05100401000000067
:102364000140800A000B01400001800C0140800301
:1023740000140140000800400140000A004C0140E4
:10238400000200000364004004050140020701400C
:10239400330801403C0901404E0B0140150C01403B
:1023A4003B0D01400419014003420140094501402D
:1023B4000646014004470140014C014003500140DE
:1023C400015101402B042C0F3C088C049F02B302E2
:1023D400E220A804AB02006401400292039F0504BA
:1023E400077A086409180A8A0B670C040D600E79D1
:1023F4000F801025110214211501182119021B192F
:102404001D751E021F0A216D22FF231224012501BE
:10241400262028402A9F2D812EFF2F2030E431E0F2
:10242400321F331F351F36E437E03A8A3BAA3C8A11
:102434003DAA580C590C5B055E065F10049005011B
:102444000CA80F801401150717101C301D411F0A1A
:1024540024402510264827102C222E0934103548F4
:102464003702380839103B283C403D296410660483
:102474006C046D146F01748C7518760A77027D40B4
:102484007F108E04908091429408970898019D10C3
:102494009E069F11A002A104A340A484A648A70AF3
:1024A400AC01AD40B120C0D0C2F0C4F0CAD0CCF071
:1024B400CEF0DE500460050406400D100E420F20DD
:1024C400108012401502160817481C501E021F20C7
:1024D40024A0270A2C122E022F08301031103602A5
:1024E40037103C283D8145224D204F0454025608A4
:1024F40057405C105E805F03620863206741792067
:102504007B087C027F048B408F089143924094089F
:102514009704980299049B409E049F11A010A16601
:10252400A202A76AA884A940AB80AC02B101B3425D
:10253400B505B722C0F0C2F0C4F0CAF0CCA0CEF00A
:10254400D0A0D220D630D890DEA0E230E820EA082D
:10255400851F8F4091019302971299129B219D1020
:102564009F20A920AB04AD20AF08B140B340B53FD4
:10257400B920BD15D90FDE04DF10002002040414B5
:102584000501070108010B400C020D800F241008FF
:10259400111014011508164017101D2A1E011F8062
:1025A4002004210522122544268027402B0A2E4090
:1025B4002F0A3008318032823310360237103880C7
:1025C4003A083C303D183F80450846404C444F2073
:1025D400564858025A0178807B807C807F808E1018
:1025E400C0F0C2F0C4F0CA3CCCAFCE7AD0C0DE9901
:1025F400A840AC10AE01E80134028802CC800B1074
:102604000F605D0860088C08C20CD601D802E00295
:102614009340AF10B508B710E802EA088C01B34044
:10262400E608EA04A80100010C010E01030C0000F5
:102634000261000E20014000020A780101100043EB
:10264400180066FF080072001C446212400020005B
:102654000000600201021E00041C002010016A0038
:102664001F7F607F1F8060002200888A999A000083
:1026740042000000060D0DDB35FF7FFF42A0700015
:1026840008100000000004000F0F0F0F00000500E9
:1026940000094009300900000000000000000000AB
:1026A4000000000000000000000000000000000026
:1026B40014000800012D02D2044500BA40030000B2
:1026C400020001FF400000002090044404000000C8
:1026D4000000180000002000041F00600CA7104830
:1026E40020FF07FF180040FF8800008A008A550079
:1026F400430000000020020516FF7FFF42A0700087
:102704000810000000000000050F0F000000041076
:1027140000484048004880480000000000000000D5
:1027240000000000000000000000000000000000A5
:10273400007F7F0000000000000030003000000037
:102744002010000030000000800A01403426000000
:102754008000000C0140B42600008000F8B500BFE2
:10276400F8BC08BC9E467047310100005D030000C0
:10277400F8B500BFF8BC08BC9E4670471D010000B8
:1027840000000000982700000080FF1F28010000BF
:042794003800000009
:102798000000000000000000000000000000000031
:1027A8000000000000000000000000000000000021
:1027B8000000000000000000000000000000000011
:1027C8000000000000000000000000000000000001
:1027D80000000000000000000000000000000000F1
:1027E80000000000000000000000000000000000E1
:1027F80000000000000000000000000000000000D1
:1028080000000000000000000000000000000000C0
:1028180000000000000000000000000000000000B0
:1028280000000000000000000000000000000000A0
:102838000000000000000000000000000000000090
:102848000000000000000000000000000000000080
:102858000000000000000000000000000000000070
:102868000000000000000000000000000000000060
:102878000000000000000000000000000000000050
:102888000000000000000000000000000000000040
:1028980000000000000102030405060708090A0BEE
:1028A8000C0D0E0F1011000000366E01C05D000007
:0828B800180000000000E02EF2
:040000030000032DC9
:00000001FF
